:020000040000FA
:020000000D28C9
:10000800CE00030E8312A3000408A4000A08A5006A
:1000180015280E2883130C3084002130FB2083011F
:10002800A0288B1E1828192896280B1D1C281D2867
:1000380096280B11FF308100200803192428252851
:100048002A282003031D29282A283A28051A2D289A
:100058002E28962885193128322896289E019F0136
:100068000230A1002108A000962896280230200618
:10007800031D3F28402896281E08803A783E03181A
:10008800462847285D28851D4A284B2858280130CE
:10009800A1001E0A51280310A10DFF3E031D4F2881
:1000A8002108A20022089F040130A10021089E0710
:1000B800962808301E06031D622863286828013028
:1000C800A10021089E07962809301E06031D6D28E9
:1000D8006E2896281D08803A783E031874287528DB
:1000E80082281F08A1001D080C3E840021088313E4
:1000F80080000130A10021089D078228F0301F06EA
:10010800031D872888288B28A001A00A9628033079
:10011800A1002108A00096289628962896289628B7
:10012800962896288B1725088A0024088400230E11
:100138008300CE0E4E0E0900831605148510051196
:1001480085150516831285018316860102308312F0
:1001580086008316811601168B178B1681150B11D5
:10016800FF3083128100A0019E019F01980199012F
:10017800BD28033083122006031DC328C428ED2898
:100188001D08803A7E3E031CCA28CB28DC28F030A4
:100198000C06031DD028D128EA281A300D06031DA5
:1001A800D628D728EA2898019901EA28EA28EA28CF
:1001B8001A300C06031DE128E228E72801309800D0
:1001C80000309900EA2898019901EA289D01A001C8
:1001D800ED28180819040319F228F328F5288601D0
:1001E800F728023086006400BD28BD280D28640069
:0E01F8008001840A0406031900340406FC2862
:00000001FF
