:020000040000FA
:020000000F28C7
:10000800CE00030E83128E0004088F000A089000A9
:100018004F089100A4291028DE22B300DF22B40083
:10002800E022B500E122B600E222B700E322B800E0
:10003800E422B900E522BA00E622BB00E722BC00B0
:10004800E822BD00E922BE00EA22BF008313263061
:1000580084003330EB228301F52800308A0004083D
:10006800840A82070034FF34FF34FF34FF34FF343E
:10007800FF34FF34FF34FF34FF34FF34FF34FF34E0
:10008800FF349C34FF34FF34FF34FF34FF34FF3433
:1000980002340334FF34FF34FF34083409340134A4
:1000A8000A340B344434FF34183410341134123405
:1000B8001B341334FF345C340734203419342234AD
:1000C8001A342334633464341F34273426342134F7
:1000D800253424345434A034063417341E341D34E3
:1000E8001C341434FF34FF349F34163415340D3463
:1000F80004340C34FF34FF349734A0340E348D3478
:1001080005349E3483348B3493349C349B34E534E7
:100118008E34A334A6344B34FF340634DD34A4348F
:10012800FF34A73494348C34843496349034FF34B8
:10013800FF3444348834853403349A341B341C34F3
:10014800A2349834FF34043497340B3423342434E1
:1001580014344334FF34FF34963413349E34A734B4
:100168000C34FF34FF3416344F341E3450342634E4
:100178005134253453342E345634363457343D34C0
:100188005C343E345E3446345F34453460344E3437
:100198006134553462345D3463344C3467345234DA
:1001A800683441346A3449346D344A346E34143412
:1001B8001334703417346C3418347D341934713472
:1001C8001F34693420347A342734753428346B3436
:1001D8002F3472343034743437344A3438345A341F
:1001E80039348316051485100511851505168312F3
:1001F80085018316860183128601831681160116EE
:100208008B178B1681150B11FF3083128100AF01FC
:10021800AE01AD01C001C00AAC01B20102308312C7
:100228003206031D6429A8012A0803193D29290853
:10023800031D3D29AB0123302B0203183D292B0850
:10024800813E840031202F06031D3529A801A80A04
:100258002B08013E813E84003120A5002508AF000F
:100268003D290230A5002508AB0723302B02031CCB
:10027800232912302F060319452959302F06031D4B
:1002880049294008A5002508AA0014302F0603199B
:10029800512913302F06031D55294008A5002508AC
:1002A800A9004008A50025089D002F0837228312C1
:1002B800AF01AE01AD01C001C00AAC01B201C0225C
:1002C80001308312A6070318A70A0030A7070730D2
:1002D8002702D13003192602031CA2293C083F0239
:1002E800031879290130BC0281293F083C02031810
:1002F80081290130A5002508BC073D083E020318E6
:1003080088290130BD0290293E083D020318902932
:100318000130A5002508BD073C083F06031D9E299E
:100328003D083E06031D9E298030BF02C830A50047
:100338002508BE07C0228312A601A701640012295E
:100348008B1A0B1D2B2A0B11FF3081003208031D5D
:10035800B529051E85192B2AB001B101B201B20ACF
:100368002B2A3203031D2B2A3008803A783E0318C3
:10037800CD29851DD12901308C00300AC5290310EB
:100388008C0DFF3E031DC3290C088D000D08B10418
:10039800D12908303006031DD62901308C000C08FD
:1003A800B0072B2A09303006031D2B2A01308C0098
:1003B8000C08AE072C080319032A940195011508A7
:1003C800803ACF0080304F02031DEC291930140207
:1003D8000318172A83121408A53E84003120310619
:1003E800031DFC291408013EA53E84003120142A6F
:1003F800023094070318950A00309507E3298330E3
:100408008312310603190F2A31088C008D010C085C
:1004180092000D08122A3F30920000309300120813
:100428008C000C08AF00F03083123106031D1F2A20
:10043800B201C0012B2AE0303106031D272AB20180
:10044800AC01AC0A2B2A02308C000C08B2008B17C6
:100458001108CF0010088A000F0884000E0E8300D0
:10046800CE0E4E0E09008312A400FF309E001E0817
:10047800AB00A0012A080319462A2808031D462AAA
:10048800A001A00A20089E001E089F0029089E00BF
:100498001E08A100803024020318592A2408013EAE
:1004A800840031209E001E08AB002B0A03197B2A0A
:1004B8001D089E001E0896002B0889228312A2019F
:1004C8002B1F6B2A1D0803196B2AA201A20A2208F6
:1004D8009E001E089F04A301AB1F772A1D0803195D
:1004E800772AA301A30A23089E001E08A1041F0857
:1004F8009E001E08960000308922831221089E0063
:100508001E0896000F308922080083129C001C08E0
:100518000739333E840083130008970017089A00B0
:10052800013097001C08980003300310980CFF3E18
:10053800031D992A18080739013EA42A0310970DAC
:10054800FF3E031DA22A1708990019089B001608E8
:100558000319B32A1B08970017089A04B72A1B091E
:10056800970017089A051A0897001C080739333EA0
:1005780084001708800008008312051585140511EA
:1005880005158510AB010B302B020318DB2A051566
:100598002B08333E840083130008860005110130C0
:1005A80096001608AB070B302B02031CCB2A051547
:1005B800860108000034003400340034003400346C
:1005C800003400340734F534DA346E34DC34640033
:0E05D8008001840A0406031900340406EC2A8C
:00000001FF
