:020000040000FA
:020000000D28C9
:10000800CE00030E83128E0004088F000A089000A9
:10001800E6290E28B623B100B723B200B823B300EF
:10002800B923B400BA23B500BB23B600BC23B7007C
:10003800BD23B800BE23B900BF23BA00C023BB004C
:1000480083131F3084003130C12383012829EA2813
:1000580006309600FF309700222943309600003082
:100068009700222924309600003097002229343046
:1000780096000030970022294430960000309700FF
:1000880022291108031D49284A284F2803309600C1
:10009800FF30970022290330960017309700222955
:1000A80022291108031D59285A285F281330960061
:1000B800FF30970022291330960017309700222925
:1000C80022291108031D69286A286F282330960001
:1000D800FF309700222923309600173097002229F5
:1000E80022291108031D79287A287F2833309600A1
:1000F800FF309700222933309600173097002229C5
:1001080022291108031D89288A288F284330960040
:10011800FF30970022294330960017309700222994
:1001280022291108031D99289A289F2844309600EF
:10013800FF30970022294630960017309700222971
:1001480022291108031DA928AA28AF2834309600AF
:10015800FF30970022294430960017309700222953
:1001680022291108031DB928BA28BF28243096006F
:10017800FF30970022294730960017309700222930
:1001880022291108031DC928CA28CF28143096002F
:10019800FF30970022292430960017309700222933
:1001A80022291108031DD928DA28DF2804309600EF
:1001B800FF30970022291430960017309700222923
:1001C8002229FF309600FF30970022298312120857
:1001D800940095011508003A0319F328E528140836
:1001E800163A03194528083A031955283B3A0319C2
:1001F8007528033A03196528083A03198528183A17
:10020800031995280B3A0319A528033A0319B528A9
:100218007B3A0319D528033A0319C5281C3A031950
:100228002C28A83A03194028063A03193628013A17
:1002380003193B280E3A03193128E52817089200BC
:100248001608910027290800831605148510051142
:1002580085150516831285018316860102308312DF
:1002680086008316811601168B178B1681150B11C4
:10027800FF3083128100B001AE01AF014329033082
:1002880083123006031D49294A29E2292D03031D3B
:100298004E294F2952291F083D23DE290230831297
:1002A8002D06031D582959296F29F0301F06031DF3
:1002B8005E295F29622920080123DE29E0308312A4
:1002C8001F06031D68296929DE29200898223D2375
:1002D800DE29DE29DE29033083122D06031D752948
:1002E80076298729F0301F06031D7B297C29DE2902
:1002F800E0302006031D81298229DE292108982261
:100308000123DE29DE2983122D08803A7C3E031C56
:100318008E298F29DE29F0301F06031D942995297F
:10032800B729E1302006031D9A299B29A5291430F5
:100338002106031DA029A129A52922089822012305
:10034800A529E03083122006031DAB29AC29DE293C
:1003580012302106031DB129B229DE29210898226D
:100368000123DE29DE29E13083121F06031DBD2982
:10037800BE29C82914302006031DC329C429C82949
:10038800210898223D23C829E03083121F06031D47
:10039800CE29CF29DE2912302006031DD429D529DC
:1003A800DE29200898223D23DE29DE29DE29DE29E0
:1003B800DE29DE298312AD01B001C9236400432977
:1003C80043290D288B1EE929EA298E2A0B1DED29C0
:1003D800EE298E2A0B11FF30810030080319F52908
:1003E800F629FB293003031DFA29FB290B2A051AD4
:1003F800FE29FF298E2A8519022A032A8E2AAE0190
:10040800AF0102308C000C08B0008E2A8E2A023010
:100418003006031D102A112A8E2A2E08803A783EAB
:100428000318172A182A2E2A851D1B2A1C2A292A4E
:1004380001308C002E0A222A03108C0DFF3E031D6A
:10044800202A0C088D000D08AF0401308C000C0820
:10045800AE078E2A08302E06031D332A342A392A7D
:1004680001308C000C08AE078E2A09302E06031DB9
:100478003E2A3F2A8E2A2D08803A783E0318452ABC
:10048800462A532A2F088C002D081F3E84000C088A
:100498008313800001308C000C08AD07532AF0301C
:1004A8002F060319582A592A5F2AE0302F06031D00
:1004B8005E2A5F2A622AB001B00A8E2A02302D060F
:1004C800031D672A682A712A12302006031D6D2A27
:1004D8006E2A712AB001B00A8E2AE1301F06031D68
:1004E800762A772A812A2D08803A783E03187D2AB1
:1004F8007E2A812AB001B00A8E2A03308C000C08AB
:10050800B0008E2A8E2A8E2A8E2A8E2A8E2A8E2A2B
:100518008E2A8E2A8B1710088A000F0884000E0E68
:100528008300CE0E4E0E0900831293009401C72A51
:100538009401FE2A9401FE2A9401FE2A9401FE2ABF
:100548009401FE2A9401FE2A9401FE2A9401FE2AAF
:100558009401FE2AF530910011089400FE2AFB3020
:10056800910011089400FE2AF430910011089400BB
:10057800FE2AF230910011089400FE2A9401FE2A06
:100588009401FE2AFE2A1308910092011208003AEB
:100598000319CF2AFE2A1108113A0319C22A033A6D
:1005A80003199C2A063A0319C42A4E3A0319AC2A9D
:1005B800333A0319A82A023A0319B32A073A031946
:1005C800A22A1C3A0319A02A013A0319A62A033AB7
:1005D8000319BD2A063A0319B82A013A0319AE2AA3
:1005E800023A03199E2A0D3A0319AA2A073A03194F
:1005F800A42AFE2A1408002B080083129C002B084A
:100608009800180891002A089900190892002908EA
:100618009A001A0893001C082B20831212089E00C7
:1006280011089D00FF301D05980000301E05990037
:10063800180A19040319212B222B252B1D087923AD
:10064800252B83121E0899001D0898001908980088
:100658009901FF3018059A00003019059B001A0A05
:100668001B040319382B392B3C2B1E0898233C2BD1
:10067800080083129C002B089800180891002A088B
:1006880099001908920029089A001A0893001C0872
:100698002B20831212089E0011089D00FF301D05B3
:1006A800980000301E059900180A190403195D2BDB
:1006B8005E2B612B1D089823612B83121E0899005D
:1006C8001D089800190898009901FF3018059A002C
:1006D800003019059B001A0A1B040319742B752B8B
:1006E800782B1E089823782B080083129400013079
:1006F80091001408920004300310920CFF3E031D71
:10070800802B1208013E8A2B0310910DFF3E031D1A
:10071800882B1108FF3A930014080739313E8400EA
:100728001308831380050800831294000130910098
:100738001408920004300310920CFF3E031D9F2BF7
:100748001208013EA92B0310910DFF3E031DA72B94
:100758001108930014080739313E840013088313E5
:1007680080040800FF34FF34FF34FF34FF34FF34C3
:10077800FF34FF34FF34FF34FF3464008001840AFF
:0C0788000406031900340406C22B08000C
:00000001FF
