:020000040000FA
:020000000D28C9
:10000800CE00030E8312A5000408A6000A08A70064
:1000180015280E2883130C3084002330762383019F
:1000280026298B1E182819281C290B1D1C281D2859
:100038001C290B11FF3081002208031D24282528C4
:100048003328051A282829281C2985192C282D2801
:100058001C29A001A101A201A20A1C291C29220312
:10006800031D372838281C292008803A783E0318B1
:100078003E283F285528851D42284328502801300E
:10008800A300200A49280310A30DFF3E031D47289B
:100098002308A4002408A1040130A3002308A00712
:1000A8001C2908302006031D5A285B2860280130C7
:1000B800A3002308A0071C2909302006031D652872
:1000C80066281C290130A30023089E071B08031972
:1000D8006E286F28E528B328B3281330A300230817
:1000E8009F00FC281730A30023089F00FC28183025
:1000F800A30023089F00FC281930A30023089F00B1
:10010800FC281F30A30023089F00FC282030A300F0
:1001180023089F00FC282730A30023089F00FC2801
:100128002830A30023089F00FC282F30A3002308B1
:100138009F00FC283030A30023089F00FC2837309C
:10014800A30023089F00FC283830A30023089F0041
:10015800FC283930A30023089F00FC28FC2821082C
:10016800A300A4012408003A0319BB28FC2823088B
:10017800143A031971285E3A0319A828103A03198A
:10018800AD28333A03198A28023A03199928073AFD
:1001980003197B281C3A03197628013A0319852884
:1001A800033A03199E28063A0319A328013A0319AA
:1001B80094280F3A03198F28073A03198028FC2836
:1001C800FC28833021060319EA28EB28F3282108A4
:1001D800A300A4012308A8002408A900F7283F3099
:1001E800A8000030A9002808A30023089F00FC28C5
:1001F800F0302106031D012902290629A2019C01CC
:100208009C0A1C29E0302106031D0B290C29102902
:10021800A2019B019B0A1C290230A3002308A2000B
:100228001C291C291C291C291C291C291C291C299E
:100238008B1727088A0026088400250E8300CE0E17
:100248004E0E09008316051485100511851505162F
:10025800831285018316860183128601831681160F
:1002680001168B178B1681150B11FF308312810035
:100278009F019E019D019C019B01A201432902301F
:1002880083122206031D49294A29CE2997011908F4
:1002980003194F2950297E291808031D5429552967
:1002A8007E299A0123301A02031C5B295C295E29E6
:1002B8007E297E291A08813E840000221F06031D1C
:1002C8006629672972299701970A1A08013E813E13
:1002D80084000022B00030089F007E290230B00060
:1002E80030089A0723301A02031C7B297C295E29CF
:1002F8007E297E291C08031D82298329A5291F0818
:10030800AA22123083121F0603198B298C299229DD
:1003180059301F06031D9129922995299901990A97
:10032800952914301F0603199A299B29A1291330EE
:100338001F06031DA029A129C6299801980AC629C4
:10034800C62912301F060319AA29AB29B229593028
:100358001F06031DB029B129B429B2299901B4296E
:1003680014301F060319B929BA29C12913301F06E9
:10037800031DBF29C029C329C1299801C3291F0802
:100388005C23C62983129F019E019D019C019B014C
:0C039800A201EB226400432943290D2838
:1004000002308A000408840A82070034FF34FF3473
:10041000FF34FF34FF34FF34FF34FF34FF34FF3444
:10042000FF34FF34FF34FF349C34FF34FF340F3487
:100430000034FF34003402340334FF34FF34FF341B
:100440000834093401340A340B344434FF3418348A
:100450001034113412341B341334FF345C34073439
:100460002034193422341A342334633464341F346E
:10047000273426342134253424345434A03406342B
:1004800017341E341D341C341434FF34FF349F34AD
:10049000163415340D3404340C34FF34FF349734DF
:1004A000A0340E348D3405349E3483348B3493342D
:1004B0009C349B34FF348E34A334A6344B34FF3445
:1004C0000634FF34A434FF34A73494348C34843499
:1004D00096349034FF34FF34443488348534033404
:1004E0009A341B341C34A2349834FF3404349734C7
:1004F0000B342334243414344334FF34FF3496341F
:1005000013349E34A7340C34FF34FF3416344F3484
:100510001E34503426345134253453342E3456345A
:10052000363457343D345C343E345E3446345F34C4
:10053000453460344E346134553462345D34633450
:100540004C3467345234683441346A3449346D343D
:100550004A346E348312AF0080302F02031CB12A5C
:10056000B22AB42AEA2AEA2A2F08013E840000228D
:10057000AE002E089A001A0A0319BF2AC02AEA2AD6
:100580001A083D23831219080319C72AC82ACD2A3D
:1005900017080319CC2ACD2AD22A1A1FD02AD12A09
:1005A000D52AD22A00303D23D82A00301D23D82A4C
:1005B00083121808031DDD2ADE2AE32A9A1FE12A86
:1005C000E22AE62AE32A0F303D23EA2A0F301D23D0
:1005D000EA2AEA2A08008312051585147E2383126D
:1005E00005117E23831205157E23831285107E2339
:1005F00083129A0108301A02031CFF2A002B022BD7
:100600001A2B1A2B05157E2383121A080C3E840020
:100610008313000886007E23831205117E23013098
:100620008312AA002A089A0708301A02031C192B01
:100630001A2B022B0515860108008312AD0001302C
:10064000AA002D08AB0003300310AB0CFF3E031DC6
:10065000242B2B080739013E2F2B0310AA0DFF3E38
:10066000031D2D2B2A08FF3AAC002D0807390C3E3C
:1006700084002C088313800508008312AD0001302C
:10068000AA002D08AB0003300310AB0CFF3E031D86
:10069000442B2B080739013E4F2B0310AA0DFF3EB8
:1006A000031D4D2B2A08AC002D0807390C3E840091
:1006B0002C088313800408008312AF0080302F02BF
:1006C000031C632B642B662B752B752B2F08013EA7
:1006D00084000022AE002E089A001A0A0319712B1A
:1006E000722B752B1A081D23752B080064008001DE
:0E06F000840A0406031900340406772B080060
:00000001FF
