:020000040000FA
:020000000F28C7
:10000800CE00030E8312A5000408A6000A08A70064
:100018004F08A8001728102883130C3084002330B9
:100028003C238301C4298B1E1A281B28E3280B1D97
:100038001E281F28E3280B11FF3081002208031D0A
:10004800262827283528051A2A282B28E328851941
:100058002E282F28E328A001A101A201A20AE32843
:10006800E3282203031D39283A28E3282008803A88
:10007800783E0318402841285728851D44284528DC
:1000880052280130A300200A4B280310A30DFF3E7D
:10009800031D49282308A4002408A1040130A30053
:1000A8002308A007E32808302006031D5C285D28E4
:1000B80062280130A3002308A007E328093020069E
:1000C800031D67286828E3280130A30023089E073A
:1000D8001B08031970287128AA28AB01AC012C0849
:1000E800803ACF0080304F02031D7C2819302B0244
:1000F800031C7F2880288228C228C22883122B0844
:10010800A53E840000212106031D8B288C289528F4
:100118002B08013EA53E84000021A30023089F0070
:10012800C2280230AB070318AC0A0030AC072C0811
:10013800803ACF0080304F02031DA42819302B02CB
:10014800031CA728A8288228C228C2288330831223
:1001580021060319B028B128B9282108A300A40151
:100168002308A9002408AA00BD283F30A9000030B0
:10017800AA002908A30023089F00C228F030831290
:100188002106031DC828C928CD28A2019C019C0A64
:10019800E328E0302106031DD228D328D728A2015E
:1001A8009B019B0AE3280230A3002308A200E3284E
:1001B800E328E328E328E328E328E328E3288B1748
:1001C8002808CF0027088A0026088400250E830007
:0601D800CE0E4E0E0900E0
:1002000001308A000408840A82070034FF34FF3476
:10021000FF34FF34FF34FF34FF34FF34FF34FF3446
:10022000FF34FF34FF34FF349C34FF34FF34FF3499
:10023000FF34FF34FF3402340334FF34FF34FF341F
:100240000834093401340A340B344434FF3418348C
:100250001034113412341B341334FF345C3407343B
:100260002034193422341A342334633464341F3470
:10027000273426342134253424345434A03406342D
:1002800017341E341D341C341434FF34FF349F34AF
:10029000163415340D3404340C34FF34FF349734E1
:1002A000A0340E348D3405349E3483348B3493342F
:1002B0009C349B34E5348E34A334A6344B34FF3461
:1002C0000634DD34A434FF34A73494348C348434BD
:1002D00096349034FF34FF34443488348534033406
:1002E0009A341B341C34A2349834FF3404349734C9
:1002F0000B342334243414344334FF34FF34963421
:1003000013349E34A7340C34FF34FF3416344F3486
:100310001E34503426345134253453342E3456345C
:10032000363457343D345C343E345E3446345F34C6
:10033000453460344E346134553462345D34633452
:100340004C3467345234683441346A3449346D343F
:100350004A346E3414341334703417346C34183413
:100360007D34193471341F34693420347A3427349D
:10037000753428346B342F34723430347434373459
:100380004A3438345A34393483160514851005112B
:100390008515051683128501831686018312860151
:1003A0008316811601168B178B1681150B11FF30E2
:1003B000831281009F019E019D019C019B01A2016E
:1003C000E129023083122206031DE729E8296C2A5D
:1003D000970119080319ED29EE291C2A1808031D95
:1003E000F229F3291C2A9A0123301A02031CF92945
:1003F000FA29FC291C2A1C2A1A08813E84000021A3
:100400001F06031D042A052A102A9701970A1A08B5
:10041000013E813E84000021B30033089F001C2A66
:100420000230B30033089A0723301A02031C192A3A
:100430001A2AFC291C2A1C2A1C08031D202A212AEE
:10044000432A1F087022123083121F060319292A1B
:100450002A2A302A59301F06031D2F2A302A332A10
:100460009901990A332A14301F060319382A392AA8
:100470003F2A13301F06031D3E2A3F2A642A980193
:10048000980A642A642A12301F060319482A492A46
:10049000502A59301F06031D4E2A4F2A522A502A2D
:1004A0009901522A14301F060319572A582A5F2A25
:1004B00013301F06031D5D2A5E2A612A5F2A9801F8
:1004C000612A1F082223642A83129F019E019D0135
:1004D0009C019B01A201B1226400E129E1290F28BE
:1004E0008312B20080303202031C772A782A7A2ADB
:1004F000B02AB02A3208013E84000021B100310840
:100500009A001A0A0319852A862AB02A1A08032390
:100510008312190803198D2A8E2A932A17080319A2
:10052000922A932A982A1A1F962A972A9B2A982A4F
:10053000003003239E2A0030E3229E2A83121808EB
:10054000031DA32AA42AA92A9A1FA72AA82AAC2AEB
:10055000A92A0F300323B02A0F30E322B02AB02A91
:1005600008008312051585144423831205114423C2
:1005700083120515442383128510442383129A01A4
:1005800008301A02031CC52AC62AC82AE02AE02A13
:100590000515442383121A080C3E840083130008B7
:1005A0008600442383120511442301308312AD00D9
:1005B0002D089A0708301A02031CDF2AE02AC82AED
:1005C0000515860108008312B0000130AD00300827
:1005D000AE0003300310AE0CFF3E031DEA2A2E08C6
:1005E0000739013EF52A0310AD0DFF3E031DF32A26
:1005F0002D08FF3AAF00300807390C3E84002F0861
:100600008313800508008312B0000130AD0030086C
:10061000AE0003300310AE0CFF3E031D0A2B2E0864
:100620000739013E152B0310AD0DFF3E031D132BA3
:100630002D08AF00300807390C3E84002F088313C3
:10064000800408008312B20080303202031C292B80
:100650002A2B2C2B3B2B3B2B3208013E8400002104
:10066000B10031089A001A0A0319372B382B3B2B9B
:100670001A08E3223B2B080064008001840A040668
:0A0680000319003404063D2B0800A6
:00000001FF
