:020000040000FA
:100000000F28FF3FFF3FFF3FCE00030E83128E00FD
:1000100004088F000A0890004F089100DA2A10287F
:10002000E323B400E423B500E523B600E623B700DC
:10003000E723B800E823B900E923BA00EA23BB00AC
:10004000EB23BC00EC23BD00ED23BE00EE23BF007C
:10005000EF23C0008313253084003430F023830164
:100060003128831685100511051405168515831290
:1000700085018316860183128601B001AE01C1019C
:10008000C10AAD01B301A701A801A901AC01AB01EF
:10009000AA018316811601168B178B1681150B1179
:1000A000FF3083128100023083123306031DE428DF
:1000B0002F08031DDD28A4012408803A573E0318A9
:1000C00092282408813E840000223006031D8928DE
:1000D0002C0803196E282A08031972282A083006EA
:1000E000031D8428410803197A283008A200220839
:1000F000AA007B28AA012408013E813E8400002238
:10010000A2002208B00092282A0803199228B00100
:1001100092280230A2002208A4072408803A573E01
:10012000031C6128A3012308803A783E0318BE28E7
:100130002308C53E840000223006031DB52841086F
:100140000319B52827082804031DB3283008A20086
:100150002208A900B830A7000B30A8006F30A20019
:100160002208B000BE28B001BE280130A20022083B
:10017000A3072308803A783E031C982812303006E3
:100180000319C62859303006031DCA284108A200A9
:100190002208AC00143030060319D2281330300680
:1001A000031DD6284108A2002208AB004108A20086
:1001B00022089B003008662345218312B001AE015E
:1001C000C101C10AAD01B30127082804031905299B
:1001D0000130A7020030031CA803A8022708280446
:1001E000031DF62895010030B3230429DC30831267
:1001F0002706053003192806031D05299B019B0AC4
:10020000290866238312A901452101308312A5071D
:100210000318A60A0030A6071330260289300319F6
:100220002502031C43293D08400203181A29013006
:10023000BD02222940083D02031822290130A200F4
:100240002208BD073E083F02031829290130BE02DB
:1002500031293F083E02031831290130A20022084B
:10026000BE073D084006031D3F293E083F06031D0B
:100270003F298030C002C830A2002208BF074521B4
:100280008312A501A6016400532883120515851465
:10029000F82383120511F823831205158510F8231E
:1002A000831296011608803A753E03186A290515CF
:1002B0001608343E84008313000986000511F823D4
:1002C000013083129500150896071608803A753E8E
:1002D000031C57290515FF3086000800FF3FFF3F2C
:1004000002308A000408840A82070034FF34FF3473
:10041000FF34FF34FF34FF34FF34FF34FF34FF3444
:10042000FF34FF34FF34FF349C34FF34FF34FF3497
:10043000FF34FF34FF3402340334FF34FF34FF341D
:100440000834093401340A340B34D634FF341834F8
:100450001034113412341B341334FF345C34073439
:100460002034193422341A342334633464341F346E
:10047000273426342134253424345434A03406342B
:1004800017341E341D341C341434FF34FF349F34AD
:10049000163415340D3404340C34FF34C13497341D
:1004A000A0340E348D3405349E3483348B3493342D
:1004B0009C349B34E5348E34A334A6344B34FF345F
:1004C0000634DD34A434D134A73494348C348434E9
:1004D0009634C934D934E13444348834853403340F
:1004E0009A341B341C34A2349834C0340434973406
:1004F0000B342334243414344334FF34FF3496341F
:1005000013349E34A7340C34FF34FF3416344F3484
:100510001E34503426345134253453342E3456345A
:10052000363457343D345C343E345E3446345F34C4
:10053000453460344E346134553462345D34633450
:100540004C3467345234683441346A3449346D343D
:100550004A346E340E344834543464345B34653475
:1005600014341334703417346C3418347D34193423
:1005700071341F34693420347A3427347534283484
:100580006B342F3472343034743437344A34383462
:100590005A3439341F3454345B346334643465342E
:1005A00048345D34453416341E34263425342E3414
:1005B00036343D348B1A0B1D5A2B0B11FF30810042
:1005C0003308031DEF2A051E85195A2BB101B2010C
:1005D000B301B30A003005180130AF005A2B3303C2
:1005E000031D562B3108803A783E0318072B851DD2
:1005F0000B2B01308C00310AFF2A03108C0DFF3EBB
:10060000031DFD2A0C088D000D08B2040B2B0830C9
:100610003106031D102B01308C000C08B1075A2B3A
:1006200009303106031D5A2B2D0803192F2B940175
:100630001408803A673E0318422B1408AB3E84002E
:1006400000223206031D2A2B1408013EAB3E840013
:1006500000223F2B02308C000C089407182B8330AB
:10066000320603193A2B32088C008D010C089200D7
:100670000D083D2B3F3092000030930012088C0093
:100680000C08B000F0303206031D492BB301C10144
:100690005A2BE0303206031D512BB301AD01AD0AD8
:1006A0005A2B02308C000C08B3005A2B043033064E
:1006B0000319B3018B171108CF0010088A000F0827
:1006C00084000E0E8300CE0E4E0E09008312A00091
:1006D000FF309C001C08A1009E012C080319752BFB
:1006E0002A08031D752B9E019E0A1E089C001C08EB
:1006F0009D002B089C001C089F00803020020318DE
:10070000882B2008013E840000229C001C08A100C8
:10071000210A0319A22B1B089C001C089500210824
:10072000B3238312211F962B0130972B00309C009E
:100730001C089D04A11F9E2B01309F2B00309C00A4
:100740001C089F041B08031908001D089C001C08B6
:1007500095000030B32383121F089C001C089500ED
:100760000F30B323080083129A00013096001A0854
:10077000970003300310970CFF3E031DBA2B170898
:100780000739013EC52B0310960DFF3E031DC32BF9
:10079000160898001808990015080319D92B19088C
:1007A00096001A080739343E840016088313800423
:1007B0000800190996001A080739343E8400160803
:1007C0008313800508000034003400340034003402
:1007D0000034003400340734F534DA34643432340D
:1007E00064008001840A0406031900340406F12B16
:1007F0000800FF3FFF3FFF3FFF3FFF3FFF3FFF3F3F
:00000001FF
