:020000040000FA
:020000000F28C7
:10000800CE00030E83128E0004088F000A089000A9
:100018004F089100312810285B23AB005C23AC000B
:100028005D23AD005E23AE005F23AF006023B00008
:100038006123B1006223B2006323B3006423B400D8
:100048006523B5006623B6006723B70083131D3008
:1000580084002B3068238301CD298B1E3428352852
:10006800FD280B1D38283928FD280B11FF30810089
:100078002A08031D402841284F28051A44284528E6
:10008800FD28851948284928FD28A801A901AA01A1
:10009800AA0AFD28FD282A03031D53285428FD28F1
:1000A8002808803A783E03185A285B287128851D4D
:1000B8005E285F286C2801308C00280A6528031008
:1000C8008C0DFF3E031D63280C088D000D08A90444
:1000D80001308C000C08A807FD2808302806031DED
:1000E800762877287C2801308C000C08A807FD2882
:1000F80009302806031D81288228FD2801308C003C
:100108000C08A607230803198A288B28C4289401F9
:1001180095011508803ACF0080304F02031D9628BC
:1001280019301402031C99289A289C28DC28DC28FA
:1001380083121408A53E840009212906031DA52859
:10014800A628AF281408013EA53E840009218C008A
:100158000C08A700DC28023094070318950A003021
:1001680095071508803ACF0080304F02031DBE283E
:1001780019301402031CC128C2289C28DC28DC285A
:100188008330831229060319CA28CB28D3282908C3
:100198008C008D010C0892000D089300D7283F3081
:1001A80092000030930012088C000C08A700DC288D
:1001B800F03083122906031DE228E328E728AA0164
:1001C800A401A40AFD28E0302906031DEC28ED2827
:1001D800F128AA01A301A30AFD2802308C000C080B
:1001E800AA00FD28FD28FD28FD28FD28FD28FD285A
:1001F800FD288B171108CF0010088A000F0884000B
:100208000E0E8300CE0E4E0E090001308A0004083F
:10021800840A82070034FF34FF34FF34FF34FF348C
:10022800FF34FF34FF34FF34FF34FF34FF34FF342E
:10023800FF349C34FF34FF34FF34FF34FF34FF3481
:1002480002340334FF34FF34FF34083409340134F2
:100258000A340B344434FF34183410341134123453
:100268001B341334FF345C340734203419342234FB
:100278001A342334633464341F3427342634213445
:10028800253424345434A034063417341E341D3431
:100298001C341434FF34FF349F34163415340D34B1
:1002A80004340C34FF34FF349734A0340E348D34C6
:1002B80005349E3483348B3493349C349B34E53436
:1002C8008E34A334A6344B34FF340634DD34A434DE
:1002D800FF34A73494348C34843496349034FF3407
:1002E800FF3444348834853403349A341B341C3442
:1002F800A2349834FF34043497340B342334243430
:1003080014344334FF34FF34963413349E34A73402
:100318000C34FF34FF3416344F341E345034263432
:100328005134253453342E345634363457343D340E
:100338005C343E345E3446345F34453460344E3485
:100348006134553462345D3463344C346734523428
:10035800683441346A3449346D344A346E34143460
:100368001334703417346C3418347D3419347134C0
:100378001F34693420347A342734753428346B3484
:100388002F3472343034743437344A3438345A346D
:100398003934831605148510051185150516831241
:1003A800850183168601831286018316811601163C
:1003B8008B178B1681150B11FF3083128100A70153
:1003C800A601A501A401A301AA01EA29023083120A
:1003D8002A06031DF029F129752A9F01210803190E
:1003E800F629F729252A2008031DFB29FC29252A97
:1003F800A20123302202031C022A032A052A252AE5
:10040800252A2208813E840009212706031D0D2A7A
:100418000E2A192A9F019F0A2208013E813E840064
:1004280009219C001C08A700252A02309C001C08F2
:10043800A20723302202031C222A232A052A252A5E
:10044800252A2408031D292A2A2A4C2A2708792222
:100458001230831227060319322A332A392A5930CF
:100468002706031D382A392A3C2AA101A10A3C2A59
:10047800143027060319412A422A482A133027062E
:10048800031D472A482A6D2AA001A00A6D2A6D2A51
:10049800123027060319512A522A592A5930270699
:1004A800031D572A582A5B2A592AA1015B2A1430AE
:1004B80027060319602A612A682A13302706031DB4
:1004C800662A672A6A2A682AA0016A2A27082D2329
:1004D8006D2A8312A701A601A501A401A301AA01FF
:1004E800BA226400EA29EA290F2883129B00803087
:1004F8001B02031C802A812A832AB92AB92A1B08CD
:10050800013E840009219A001A08A200220A031950
:100518008E2A8F2AB92A22080E238312210803194A
:10052800962A972A9C2A1F0803199B2A9C2AA12AE3
:10053800221F9F2AA02AA42AA12A00300E23A72A14
:100548000030EE22A72A83122008031DAC2AAD2A08
:10055800B22AA21FB02AB12AB52AB22A0F300E2316
:10056800B92A0F30EE22B92AB92A080083120515D4
:100578008514472383120511472383120515472342
:100588008312851047238312A2010B302202031C19
:10059800CE2ACF2AD12AEB2AEB2A47238312051524
:1005A8004723831222082B3E840083130008860009
:1005B8004723831205114723013083129800180836
:1005C800A2070B302202031CEA2AEB2AD12A0515BE
:1005D80086010800831299000130960019089700D7
:1005E80003300310970CFF3E031DF52A170807393F
:1005F800013E002B0310960DFF3E031DFE2A160830
:10060800FF3A9800190807392B3E8400180883130D
:100618008005080083129900013096001908970098
:1006280003300310970CFF3E031D152B17080739DD
:10063800013E202B0310960DFF3E031D1E2B1608AE
:100648009800190807392B3E840018088313800482
:10065800080083129B0080301B02031C342B352BAF
:10066800372B462B462B1B08013E840009219A0094
:100678001A08A200220A0319422B432B462B2208F0
:10068800EE22462B080083129701170803194D2BF9
:100698004E2B502B5A2B5A2B0130960016089707D1
:1006A80017080319582B592B502B5A2B08000034C4
:1006B8000034003400340034003400340034013491
:1006C800F534DA346E34DC3464008001840A0406BC
:0806D800031900340406692B2C
:00000001FF
