:020000040000FA
:020000000F28C7
:10000800CE00030E83128E0004088F000A089000A9
:100018004F089100B6291028F922B200FA22B3003D
:10002800FB22B400FC22B500FD22B600FE22B70078
:10003800FF22B8000023B9000123BA000223BB0045
:100048000323BC000423BD000523BE008313253011
:100058008400323006238301F52800308A00040822
:10006800840A82070034FF34FF34FF34FF34FF343E
:10007800FF34FF34FF34FF34FF34FF34FF34FF34E0
:10008800FF349C34FF34FF34FF34FF34FF34FF3433
:1000980002340334FF34FF34FF34083409340134A4
:1000A8000A340B344434FF34183410341134123405
:1000B8001B341334FF345C340734203419342234AD
:1000C8001A342334633464341F34273426342134F7
:1000D800253424345434A034063417341E341D34E3
:1000E8001C341434FF34FF349F34163415340D3463
:1000F80004340C34FF34FF349734A0340E348D3478
:1001080005349E3483348B3493349C349B34E534E7
:100118008E34A334A6344B34FF340634DD34A4348F
:10012800FF34A73494348C34843496349034FF34B8
:10013800FF3444348834853403349A341B341C34F3
:10014800A2349834FF34043497340B3423342434E1
:1001580014344334FF34FF34963413349E34A734B4
:100168000C34FF34FF3416344F341E3450342634E4
:100178005134253453342E345634363457343D34C0
:100188005C343E345E3446345F34453460344E3437
:100198006134553462345D3463344C3467345234DA
:1001A800683441346A3449346D344A346E34143412
:1001B8001334703417346C3418347D341934713472
:1001C8001F34693420347A342734753428346B3436
:1001D8002F3472343034743437344A3438345A341F
:1001E80039348316051485100511851505168312F3
:1001F80085018316860183128601831681160116EE
:100208008B178B1681150B11FF3083128100AE01FD
:10021800AD01AC01BF01BF0AAB01B101A901A80141
:10022800A701023083123106031D7629AA01233063
:100238002A0203184F292A08813E840031202E06FD
:10024800031D4729290803192C29270803193029D0
:1002580027082E06031D42293F08031938292E08AE
:10026800A4002408A7003929A7012A08013E813ED5
:1002780084003120A4002408AE004F292708031960
:100288004F29AE014F290230A4002408AA072330C1
:100298002A02031C1F2912302E0603195729593028
:1002A8002E06031D5B293F08A4002408A90014306A
:1002B8002E060319632913302E06031D67293F08EC
:1002C800A4002408A8003F08A40024089D002E08C4
:1002D80049228312AE01AD01AC01BF01BF0AAB01D7
:1002E800B101DB2201308312A5070318A60A0030EA
:1002F800A60707302602D13003192502031CB429AA
:100308003B083E0203188B290130BB0293293E08A3
:100318003B02031893290130A4002408BB073C08BA
:100328003D0203189A290130BC02A2293D083C026B
:100338000318A2290130A4002408BC073B083E0684
:10034800031DB0293C083D06031DB0298030BE02BC
:10035800C830A4002408BD07DB228312A501A6012A
:10036800640015298B1A0B1D3D2A0B11FF308100E3
:100378003108031DC729051E85193D2AAF01B001A3
:10038800B101B10A3D2A3103031D3D2A2F08803AE5
:10039800783E0318DF29851DE32901308C002F0AD8
:1003A800D72903108C0DFF3E031DD5290C088D009D
:1003B8000D08B004E32908302F06031DE829013091
:1003C8008C000C08AF073D2A09302F06031D3D2A73
:1003D80001308C000C08AD072B080319152A94016D
:1003E80095011508803ACF0080304F02031DFE2981
:1003F800193014020318292A83121408A53E840010
:1004080031203006031D0E2A1408013EA53E840043
:100418003120262A023094070318950A00309507E0
:10042800F5298330831230060319212A30088C00FD
:100438008D010C0892000D08242A3F3092000030EC
:10044800930012088C000C08AE00F03083123006BE
:10045800031D312AB101BF013D2AE0303006031DDA
:10046800392AB101AB01AB0A3D2A02308C000C08D5
:10047800B1008B171108CF0010088A000F088400FC
:100488000E0E8300CE0E4E0E09008312A300FF301D
:100498009E001E08AA00A00129080319582A270847
:1004A800031D582AA001A00A20089E001E089F00CC
:1004B800A101803023020318682A2308013E840022
:1004C80031209E001E08AA002A0A0319822A1D0844
:1004D8009E001E0896002A08A42283122A1F762A44
:1004E8000130772A00309E001E089F04AA1F7E2A2A
:1004F80001307F2A00309E001E08A1041D08031940
:100508000800A201A20A1F08031D912A290803193D
:10051800902A27080319912AA20122089E001E0882
:1005280096000030A4228312210803199D2A013065
:100538009E2A00309E001E0896000F30A422080054
:1005480083129C001C080739323E8400831300087C
:10055800970017089A00013097001C08980003308C
:100568000310980CFF3E031DB42A18080739013EF2
:10057800BF2A0310970DFF3E031DBD2A17089900D7
:1005880019089B0016080319CE2A1B08970017089C
:100598009A04D22A1B09970017089A051A08970087
:1005A8001C080739323E84001708800008008312AF
:1005B80005158514051105158510AA010B302A02A9
:1005C8000318F62A05152A08323E8400831300080A
:1005D80086000511013096001608AA070B302A027A
:1005E800031CE62A0515860108000034003400348F
:1005F800003400340034003400340734F534DA347D
:100608006E34DC3464008001840A04060319003463
:040618000406072BA2
:00000001FF
