:020000040000FA
:100000000F28FF3FFF3FFF3FCE00030E83128E00FD
:1000100004088F000A0890004F089100E02A102879
:10002000E321B700E421B800E521B900E621BA00D8
:10003000E721BB00E821BC00E921BD00EA21BE00A8
:10004000EB21BF00EC21C000ED21C100831327305C
:1000500084003730EE2183012D2883168510051189
:1000600005140516851583128501831686018312F2
:100070008601B101AF01C201C20AAE01B401A901FA
:10008000AA01AB01B601AC018316811601168B17CC
:100090008B1681150B11FF30831281007121023004
:1000A00083123406031D1B293008031D1329CF308A
:1000B000A200220895000630A300230896009701AD
:1000C0003630C023D5308312A200220895000630B6
:1000D000A300230896002D08A400240897003530BB
:1000E000C023773083123106031D8228420803198A
:1000F00082282D08031D7E2801307F280030A200B1
:100100002208AD0036080C39031996283608303914
:10011000031996281F303106031D9628420803193B
:100120009628FD30A2002208BF059728BF14360884
:100130000C390319A7287E303106031DA728420871
:100140000319A728FB30A2002208BF05A8283F15E5
:10015000A6012608803A573E0318E0282608813E6B
:10016000840000223106031DD728360803390319FD
:10017000BC282C080319C0282C083106031DD228DE
:1001800042080319C8283108A2002208AC00C92877
:10019000AC012608013E813E84000022A200220814
:1001A000B100E0282C080319E028B101E028023052
:1001B000A2002208A6072608803A573E031CAE2854
:1001C000A5012508803A783E03180C292508C73E6A
:1001D000840000223106031D032942080319032964
:1001E00029082A04031D01293108A2002208AB00B6
:1001F0002830A9000A30AA006F30A2002208B100FE
:100200000C29B1010C290130A2002208A5072508FC
:10021000803A783E031CE6284208A20022089B0090
:1002200031086C2371218312B101AF01C201C20AEE
:10023000AE01B4016F2929082A0403193E290130AF
:10024000A9020030031CAA03AA0229082A04031DDC
:100250002E2995010030B32171216F2914308312AA
:100260002906053003192A06031D6F299B019B0AE5
:100270002B086C238312AB0171216F29013083128B
:10028000A7070318A80A0030A80707302802D130B2
:1002900003192702031C6F292D0803196B29351C2C
:1002A00053290230C002B51C59290230A20022088D
:1002B000C007351D5F290230A2002208C107B51D05
:1002C00063290230C102351E6A29FE30A2002208CD
:1002D000BF056B293F1471218312A701A801640097
:1002E0004F28831285100515FD2383128514FD23E5
:1002F00083128510FD23831299011908803A753EF7
:100300000318B0291908803A783E031C922919086D
:10031000373E840083130008950096011508970066
:1003200016089C291908373E84008313000895009D
:100330009601150997001609980017088600FD23F5
:1003400083120511FD2383120515FD23013083124D
:100350009500150899071908803A753E031C8229F3
:10036000FF308600080083129A00013096001A08B8
:10037000970003300310970CFF3E031DBA2917089E
:100380000739013EC5290310960DFF3E031DC32901
:10039000160898001808990015080319D929190892
:1003A00096001A080739373E840016088313800424
:1003B0000800190996001A080739373E8400160804
:1003C0008313800508000034003400340034003406
:1003D0000034003400340734F534DA34640080012A
:1003E000840A0406031900340406EF29FF3FFF3F87
:1004000002308A000408840A82070034FF34FF3473
:10041000FF34FF34FF34FF34FF34FF34FF34FF3444
:10042000FF34FF34FF34FF349C34FF34FF34FF3497
:10043000FF34FF34FF3402340334FF34FF34FF341D
:100440000834093401340A340B34D634FF341834F8
:100450001034113412341B341334FF345C34073439
:100460002034193422341A342334633464341F346E
:10047000273426342134253424345434A03406342B
:1004800017341E341D341C341434FF34FF349F34AD
:10049000163415340D3404340C34FF34C13497341D
:1004A000A0340E348D3405349E3483348B3493342D
:1004B0009C349B34E5348E34A334A6344B34FF345F
:1004C0000634DD34A434D134A73494348C348434E9
:1004D0009634C934D934E13444348834853403340F
:1004E0009A341B341C34A2349834C0340434973406
:1004F0000B342334243414344334FF34FF3496341F
:1005000013349E34A7340C34FF34FF3416344F3484
:100510001E34503426345134253453342E3456345A
:10052000363457343D345C343E345E3446345F34C4
:10053000453460344E346134553462345D34633450
:100540004C3467345234683441346A3449346D343D
:100550004A346E340E344834543464345B34653475
:100560001134083414341334703417346C341834A0
:100570007D34193471341F34693420347A3427348B
:10058000753428346B342F34723430347434373447
:100590004A3438345A3439341F3454345B34633475
:1005A0006434653448345D341234593414341334AB
:1005B000113408346B347434753472347334043445
:1005C0008B1A0B1D602B0B11FF3081003408031DAB
:1005D000F52A051E8519602BB201B301B401B40AD6
:1005E000003005180130B000602B3403031D5C2B74
:1005F0003208803A783E03180D2B851D112B0130EF
:100600008C00320A052B03108C0DFF3E031D032BBB
:100610000C088D000D08B304112B08303206031DA1
:10062000162B01308C000C08B207602B0930320603
:10063000031D602B2E080319352B94011408803AF2
:10064000653E0318482B1408AB3E84000022330695
:10065000031D302B1408013EAB3E84000022452BC5
:1006600002308C000C0894071E2B833033060319CC
:10067000402B33088C008D010C0892000D08432B91
:100680003F3092000030930012088C000C08B1003B
:10069000F0303306031D4F2BB401C201602BE03054
:1006A0003306031D572BB401AE01AE0A602B023096
:1006B0008C000C08B400602B043034060319B4011C
:1006C0008B171108CF0010088A000F0884000E0E47
:1006D0008300CE0E4E0E09008312A000FF309C0056
:1006E0001C08A1009E013608033903197C2B2C0835
:1006F000031D7C2B9E019E0A1E089C001C089D0069
:1007000036080C390319862B0130872B00309C00EA
:100710001C089F00803020020318952B2008013E02
:10072000840000229C001C08A100210A0319AF2BA1
:100730001B089C001C0895002108B3218312211F6F
:10074000A32B0130A42B00309C001C089D04A11F8A
:10075000AB2B0130AC2B00309C001C089F041B0805
:10076000031908001D089C001C0895000030B321E7
:1007700083121F089C001C0895000F30B32108004D
:1007800083129A009B0116081B02031808001B081D
:100790001507840000223106031DF82B42080319B7
:1007A000E22B013098001B0AD72B0310980DFF3E57
:1007B000031DD52B180899001A0884001908831303
:1007C0008004F32B013098001B0AE82B0310980DCE
:1007D000FF3E031DE62B1808FF3A99001A08840013
:1007E000190883138005170803190800B1010800D0
:1007F0000130980018089B07C32B0800FF3FFF3FFC
:00000001FF
