:020000040000FA
:100000001028FF3FFF3FFF3FFE00030EF2000408F1
:10001000F3000A08F400831203137F08F500E02AB6
:1000200011287B24B2007C24B3007D24B4007E24FC
:10003000B5007F24B6008024B7008124B800822454
:10004000B9008324BA008424BB008524BC00BD0110
:10005000BE01BF01C001C101C201C301C401C5018C
:10006000C601F901FA01FB01830136288B170B1336
:100070008B160B128B110B118B100B1083120313A9
:100080008C130C138C120C120C118C100C10831688
:1000900003138C130C138C120C120C118C100C10FB
:1000A00081130113811601168115011181100110B0
:1000B000FF308312031381008E018F0191010630FE
:1000C000900095019601970107309F008316031356
:1000D0009F01831203139801803083160313980045
:1000E0008312031398138501FF30831603138500D1
:1000F000051485100511851505168601FF3083123C
:1001000003138600C901C401C701C70AF901FC0134
:10011000BF01C001C101C601C20102308312031335
:10012000AD002D08FC00C8014530AD002D08C90008
:1001300002307C06031D66294808031D5D29CF3067
:10014000AD002D08A0000630AE002E08A100A201CF
:1001500046300C24D53083120313AD002D08A000C7
:100160000630AE002E08A1004308AF002F08A20001
:1001700045300C247730831203134906031DCC2825
:1001800047080319CC284308031DC8280130C92893
:100190000030AD002D08C30046080C390319E028D3
:1001A000460830390319E0281F304906031DE028AE
:1001B00047080319E028FD30AD002D08BA05E128F5
:1001C000BA1446080C390319F1287E304906031D7C
:1001D000F12847080319F128FB30AD002D08BA05B6
:1001E000F2283A15B1013108803A573E03182A29FE
:1001F0003108813E840000224906031D212946085A
:10020000033903190629420803190A294208490635
:10021000031D1C294708031912294908AD002D08A0
:10022000C2001329C2013108013E813E8400002230
:10023000AD002D08C9002A29420803192A29C9013D
:100240002A290230AD002D08B1073108803A573E07
:10025000031CF828B0013008803A783E031856296C
:100260003008C73E840000224906031D4D29470877
:1002700003194D293F084004031D4B294908AD00CF
:100280002D08C1002830BF000A30C0006F30AD001B
:100290002D08C9005629C90156290130AD002D0885
:1002A000B0073008803A783E031C30294708AD007B
:1002B0002D08A60049086C23C32383120313C90128
:1002C000C401C701C70AF901FC01BE293F08400467
:1002D00003198B290130BF020030031CC003C00288
:1002E0003F084004031D7929A00100304A24C3239C
:1002F000BE291430831203133F060530031940064C
:10030000031DBE29A601A60A41086C23831203130C
:10031000C101C323BE29013083120313BD07031893
:10032000BE0A0030BE0707303E02D13003193D023D
:10033000031CBE2943080319B929451CA129023011
:10034000BB02C51CA7290230AD002D08BB07451D07
:10035000AD290230AD002D08BC07C51DB129023002
:10036000BC02451EB829FE30AD002D08BA05B929DA
:100370003A14C32383120313BD01BE0164008D2808
:1004000002308A000408840A82070034FF34FF3473
:10041000FF34FF34FF34FF34FF34FF34FF34FF3444
:10042000FF34FF34FF34FF349C34FF34FF34FF3497
:10043000FF34FF34FF3402340334FF34FF34FF341D
:100440000834093401340A340B34D634FF341834F8
:100450001034113412341B341334FF345C34073439
:100460002034193422341A342334633464341F346E
:10047000273426342134253424345434A03406342B
:1004800017341E341D341C341434FF34FF349F34AD
:10049000163415340D3404340C34FF34C13497341D
:1004A000A0340E348D3405349E3483348B3493342D
:1004B0009C349B34E5348E34A334A6344B34FF345F
:1004C0000634DD34A434D134A73494348C348434E9
:1004D0009634C934D934E13444348834853403340F
:1004E0009A341B341C34A2349834C0340434973406
:1004F0000B342334243414344334FF34FF3496341F
:1005000013349E34A7340C34FF34FF3416344F3484
:100510001E34503426345134253453342E3456345A
:10052000363457343D345C343E345E3446345F34C4
:10053000453460344E346134553462345D34633450
:100540004C3467345234683441346A3449346D343D
:100550004A346E340E344834543464345B34653475
:100560001134083414341334703417346C341834A0
:100570007D34193471341F34693420347A3427348B
:10058000753428346B342F34723430347434373447
:100590004A3438345A3439341F3454345B34633475
:1005A0006434653448345D341234593414341334AB
:1005B000113408346B347434753472347334043445
:1005C0008B1A0B1D602B0B11FF3081007C08031D63
:1005D000F52A051E8519602BFA01FB01FC01FC0AB6
:1005E000003005180130C800602B7C03031D5C2B14
:1005F0007A08803A783E03180D2B851D112B0130A7
:10060000F0007A0A052B0310F00DFF3E031D032BAB
:100610007008F1007108FB04112B08307A06031DE5
:10062000162B0130F0007008FA07602B09307A06AB
:10063000031D602B79080319352BF8017808803ADF
:10064000653E0318482B7808AB3E840000227B06E9
:10065000031D302B7808013EAB3E84000022452B61
:100660000230F0007008F8071E2B83307B06031958
:10067000402B7B08F000F1017008F6007108432B55
:100680003F30F6000030F7007608F0007008C9002F
:10069000F0307B06031D4F2BFC01C701602BE030BF
:1006A0007B06031D572BFC01F901F90A602B023070
:1006B000F0007008FC00602B04307C060319FC017C
:1006C0008B177508FF0074088A0073088400720E87
:1006D0008300FE0E7E0E090083120313AB00FF3071
:1006E000A7002708AC00A9014608033903197D2B90
:1006F0004208031D7D2BA901A90A2908A700270884
:10070000A80046080C390319872B0130882B0030CC
:10071000A7002708AA0080302B020318962B2B086D
:10072000013E84000022A7002708AC002C0A031910
:10073000B12B2608A7002708A0002C084A24831202
:1007400003132C1FA52B0130A62B0030A700270870
:10075000A804AC1FAD2B0130AE2B0030A70027083A
:10076000AA042608031908002808A7002708A000E3
:1007700000304A24831203132A08A7002708A00088
:100780000F304A24080083120313851005158624B0
:100790008312031385148624831203138510862481
:1007A00083120313A4012408803A753E0318092C10
:1007B0002408803A783E031CE82B2408323E84004B
:1007C00083130008A000A1012008A2002108F22B39
:1007D0002408323E840083130008A000A1012009F0
:1007E000A2002109A3002208860086248312031395
:1007F0000511862483120313051586240130831204
:100800000313A0002008A4072408803A753E031CA7
:10081000D82BFF308600080083120313A500A60121
:100820002108260203180800260820078400002259
:100830004906031D452C470803192F2C0130A3003E
:10084000260A242C0310A30DFF3E031D222C23088F
:10085000A40025088400240883138004402C013060
:10086000A300260A352C0310A30DFF3E031D332CD5
:100870002308FF3AA4002508840024088313800578
:10088000220803190800C90108000130A300230849
:10089000A607102C83120313A5000130A100250820
:1008A000A20003300310A20CFF3E031D522C2208AD
:1008B0000739013E5D2C0310A10DFF3E031D5B2C8B
:1008C0002108A3002308A40020080319712C240880
:1008D000A10025080739323E8400210883138004D3
:1008E00008002409A10025080739323E84002108A8
:1008F00083138005080000340034003400340034D1
:100900000034003400340734F534DA340800FF3F93
:00000001FF
