:020000040000FA
:100000000C28FF3FFF3FFF3FFE00030EF8000408EF
:10001000F9000A08FA00752B0D281C26BF001D26C2
:10002000C0001E26C1001F26C2002026C3002126B4
:10003000C4002226C5002326C6002426C700252684
:10004000C8002626C9008313A0308400C0302726AC
:100050004A308400533027267030840076302726BB
:100060008301B52AFF3FFF3FFF3FFF3FFF3FFF3FB9
:1002000001308A000408840A82070034FF34FF3476
:10021000FF34FF34FF34FF34FF34FF34FF34FF3446
:10022000FF34FF34FF34FF349C34FF34FF34FF3499
:10023000FF34FF34FF3402340334FF34FF34FF341F
:100240000834093401340A340B34D634FF341834FA
:100250001034113412341B341334FF345C3407343B
:100260002034193422341A342334633464341F3470
:10027000273426342134253424345434A03406342D
:1002800017341E341D341C341434FF34FF349F34AF
:10029000163415340D3404340C34FF34C13497341F
:1002A000A0340E348D3405349E3483348B3493342F
:1002B0009C349B34E5348E34A334A6344B34FF3461
:1002C0000634DD34A434D134A73494348C348434EB
:1002D0009634C934D934E134443488348534033411
:1002E0009A341B341C34A2349834C0340434973408
:1002F0000B342334243414344334FF34FF34963421
:1003000013349E34A7340C34FF34FF3416344F3486
:100310001E34503426345134253453342E3456345C
:10032000363457343D345C343E345E3446345F34C6
:10033000453460344E346134553462345D34633452
:100340004C3467345234683441346A3449346D343F
:100350004A346E340E344834543464345B34653477
:100360001134083414341334703417346C341834A2
:100370007D34193471341F34693420347A3427348D
:10038000753428346B342F34723430347434373449
:100390004A3438345A3439341F3454345B34633477
:1003A0006434653448345D341234593414341334AD
:1003B000113408346B347434753472347334043447
:1003C00083120313B50080303502031808002D3066
:1003D000AE002E08A0007530AF002F08A100CF306E
:1003E000B0003008A2000630B1003108A300A4011B
:1003F000353087252D3083120313AE002E08A00060
:100400005230AF002F08A100D530B0003008A20054
:100410000630B1003108A3004F08B2003208A40032
:10042000353087257730831203133506031D242AC0
:100430002D080319242A4F08031D202A0130212AE0
:100440000030AE002E08CF0075080C390319382A89
:10045000750830390319382A1F303506031D382A2C
:100460002D080319382AFD30AE002E08C705392A99
:10047000C71475080C390319492A7E303506031D47
:10048000492A2D080319492AFB30AE002E08C7055A
:100490004A2A4715B4013408803A573E0318822A85
:1004A0003408813E840000213506031D792A750831
:1004B000033903195E2A70080319622A7008350689
:1004C000031D742A2D0803196A2A3508AE002E0868
:1004D000F0006B2AF0013408013E813E84000021C7
:1004E000AE002E08B500822A70080319822AB501D1
:1004F000822A0230AE002E08B4073408803A573EF4
:10050000031C502AB3013308803A783E0318AE2A00
:100510003308C73E840000213506031DA52A2D0897
:100520000319A52A4C084D04031DA32A3508AE0063
:100530002E08CE002830CC000A30CD006F30AE003F
:100540002E08B500AE2AB501AE2A0130AE002E0845
:10055000B3073308803A783E031C882A2D08AE0082
:100560002E08A6003508EA24080000308312031381
:10057000A0000030A1008724013083120313A000E3
:100580000030A100872483120313BE013E08803A85
:10059000783E0318D92A3E083F3E84008313800129
:1005A0000130BD003D08BE073E08803A783E031C7E
:1005B000CB2A0730BD003D08C700F530BD003D081F
:1005C000C800DA30BD003D08C9003D258B170B136C
:1005D0008B160B128B110B118B100B108312031344
:1005E0008C130C138C120C120C118C100C10831623
:1005F00003138C130C138C120C120C118C100C1096
:100600008117011381160116811501118110011046
:10061000FF308312031381008E018F019101063098
:10062000900095019601970107309F0083160313F0
:100630009F018312031398018030831603139800DF
:10064000831203139813F930831603138500831262
:1006500003138501831603138601FF3083120313EE
:100660008600CC01CD01CE01F501F0018312031308
:10067000D001A0300A24B0300A24013083120313C1
:10068000CA070318CB0A0030CB0707304B02D13022
:1006900003194A02031C6F2B4F0803196B2B521CC2
:1006A000532B0230C802D21C592B0230BD003D082A
:1006B000C807521D5F2B0230BD003D08C907D21D7F
:1006C000632B0230C902521E6A2BFE30BD003D086A
:1006D000C7056B2B4714CA01CB01D001D00A5008C3
:1006E0000319732B3D256400362B8B1A0B1D012C2F
:1006F00002307406031DA42B083071020318912BDD
:10070000731C862B831203138515892B8312031305
:10071000851173080139F6007608F2060310F30C10
:10072000B72B08307106031D9F2B721C9B2B831265
:1007300003138515B72B831203138511B72B83126F
:1007400003138515F401B72B7403031DEC2B08303C
:1007500071020318B32B0310F30C83120313851DCE
:10076000B72BF317B72B08307106031DBC2B0130D4
:10077000F6007608F107FC2B09307106031DFC2BEF
:10078000831203135108F60003300310F60DFF3EE9
:10079000031DC52B0310760DA03EF7007708FB0064
:1007A0007308F6007B08043E840083130008063EAD
:1007B0007B07F70077088400760880007B08043EFA
:1007C00084000008013E0739F6007B08043E8400DF
:1007D00076088000F401FC2B7408031DFC2B8312A7
:1007E0000313051E8519FC2BF101F301F401F40A32
:1007F000003005180130D1000B11FF3083120313B4
:1008000081007A088A0079088400780E8300FE0E41
:100810007E0E090083120313BC003C0884000330E1
:1008200083130006031D08003C08043E84000008F2
:10083000B6003C08053E840000083606031908008F
:100840003C08FD2583120313B6003608BB003C08A4
:10085000033E8400831300080319462CBA013A08AA
:10086000803A653E0318592C3A08AB3E84000021BB
:100870003B06031D412C3A08013EAB3E840000219B
:10088000562C0230B6003608BA072F2C83303B06B0
:100890000319512C3B08B600B7013608B8003708D9
:1008A000542C3F30B8000030B9003808B600360884
:1008B000BB00F0303B06031D632C3C08023E840065
:1008C000831380010800E0303B06031D6E2C3C08BA
:1008D000033E840083138001800A08003C08023E26
:1008E000840083130008B6003608AD003B08E02101
:1008F00083120313D001D00A3C08023E8400831304
:100900008001800A3C08033E8400800108008312B5
:1009100003132008023EA20021080318013E003EF6
:10092000A300220884008317231C83138001800AFC
:100930002008033EA20021080318013E003EA30048
:10094000220884008317231C831380012008053E9E
:10095000A20021080318013E003EA30022088400E3
:100960008317231C831380012008043EA200210862
:100970000318013E003EA300220884008317231CB5
:10098000831380010330A200200884008317211CF8
:100990008313220880002008013EA20021080318CA
:1009A000013E003EA300220884008317231C83130A
:1009B000800120080E3EA20021080318013E003EDF
:1009C000A300220884008317231C83138001840A58
:1009D0008001080083120313A800FF30A700270836
:1009E000AC00AA01750803390319FB2C7008031D1C
:1009F000FB2CAA01AA0A2A08A7002708A900750843
:100A00000C390319052D0130062D0030A7002708E9
:100A1000AB002808013E84000021A7002708AC0095
:100A20002C0A03192B2D2608A7002708A0002C0844
:100A3000CC25831203132C1F1F2D0130202D0030D5
:100A4000A7002708A904AC1F272D0130282D00304E
:100A5000A7002708AB042608031908002908A700E7
:100A60002708A0000030CC25831203132B08A70011
:100A70002708A0000F30CC250800831203130515AA
:100A800085102F268312031385142F268312031338
:100A900085102F2683120313A4012408803A753E83
:100AA0000318842D05152408803A783E031C632D15
:100AB00024083F3E840083130008A000A101200801
:100AC000A20021086D2D24083F3E840083130008F6
:100AD000A000A1012009A2002109A300220886008C
:100AE0002F268312031305112F26831203130515D6
:100AF0002F26013083120313A0002008A407240826
:100B0000803A753E031C522DFF3086000800831288
:100B10000313A700A80123082802031808002808C7
:100B2000220784000021A500270884008313000801
:100B30002506031DC72D2008840000080319B02DC9
:100B40000130A500280AA62D0310A50DFF3E031DA8
:100B5000A42D2508A6002108840026088004C02DA5
:100B60000130A500280AB62D0310A50DFF3E031D78
:100B7000B42D2508FF3AA600210884002608800528
:100B800024080319080027088400800108000130A8
:100B9000A5002508A8078B2D83120313A50001309B
:100BA000A1002508A20003300310A20CFF3E031D84
:100BB000D42D22080739013EDF2D0310A10DFF3E81
:100BC000031DDD2D2108A3002308A400200803191C
:100BD000F32D2408A100250807393F3E8400210891
:100BE0008313800408002409A100250807393F3E2B
:100BF0008400210883138005080083120313A300D7
:100C00002308053E840083130008063E2307A00046
:100C1000200884000008A1002108A2002308053E46
:100C200084000008013E0739A0002308053E840027
:100C3000200880002208080000340034003400340A
:100C400000340034003400340734F534DA346400FE
:100C50008001840A0406031900340406282E0800C3
:00000001FF
