:020000040000FA
:100000000C28FF3FFF3FFF3FFE00030EF6000408F1
:10001000F7000A08F800C02C0D287022D9007122C0
:10002000DA007222DB007322DC007422DD0075220C
:10003000DE007622DF007722E0007822E1007922DC
:10004000E2007A22E3007B22E4008313A0308400E4
:10005000BA307C224430840059307C227A308400CB
:100060007E307C2283013428A030D327AD30D327C3
:1000700083120313BF013F08803A783E03184E28CD
:100080003F08593E8400831380010130BD003D08C4
:10009000BF073F08803A783E031C40280730BD0068
:1000A0003D08E100F530BD003D08E200DA30BD005A
:1000B0003D08E30044278B170B138B160B128B1193
:1000C0000B118B100B10831203138C130C138C1257
:1000D0000C120C118C100C10831603138C130C13C0
:1000E0008C120C120C118C100C108117011381163C
:1000F00001168115011181100110FF3083120313C5
:1001000081008E018F0191010630900095019601CA
:10011000970107309F00831603139F018312031377
:1001200098018030831603139800831203139813E9
:10013000F930831603138500831203138501831698
:1001400003138601FF30831203138600C801C9011F
:10015000CC01D701CD01CA01CB01D501D3010330B8
:10016000BD003D08D200C401C501D101D0018312F8
:100170000313CF01C201023042020318F5290D30EA
:10018000BD003D08A0004208EB27A03E83120313E8
:10019000BE003E08C3004308033E840083130008EA
:1001A000BD004308043E840000083D060319EB2807
:1001B0004308043E84000008053E4307BD003D0897
:1001C0008400AA300006031DEB280330BD0043085D
:1001D00084003D088000430884000003031DF328C9
:1001E00043080326EB2983120313430884000230DB
:1001F00083130006031DFF2843086325EB298312A0
:10020000031343088400033083130006031DE02911
:10021000033052060319102952084206031DE02933
:100220000130CA070318CB0A0030CB0701304B025C
:100230004E3003194A02031CF5294308033E84008B
:100240000008BD004308043E840000083D06031971
:1002500043294308043E84000008053E4307BD00CF
:100260003D0884000008BE003E08C1004308043E6B
:1002700084000008013E0739BD004308043E8400A5
:100280003D0880004729FF30BD003D08C1005308EC
:10029000031D542903305206031DDD294208BD0009
:1002A0003D08D200D501DB295303031DA4295508BD
:1002B000C73E84000023BD003D08D400AA30540688
:1002C000031D9A29D83084000023FF3EBD00FF3073
:1002D00003180030BE0055083D063E04031D7B296F
:1002E0000230BD00430884003D088000FF30C40098
:1002F0000030C50094294208BD003D08E4004308D1
:1003000084008001800AC00108304002031894294B
:100310004008593E840080010130BD003D08C007FF
:1003200008304002031C8829D3010330BD003D087A
:10033000D200F5295408BD003D08A00052088826C7
:10034000023083120313B12902305306031DB5296D
:10035000FE3041060319DB29FC3041060319DB2975
:100360000330BD003D08D300DD2903305306031DD3
:10037000DD29F2305406031DD029833041060319CC
:10038000D72941080319C82903304106031DD7297D
:10039000D93084000023FF3EBD003D08D500D72999
:1003A000540A031DD729AA304106031DF52901303F
:1003B000BD003D08D507D301D30ACA01CB01F529F9
:1003C0004308033E840083130008BD004308043E35
:1003D00084003D088000013083120313BD003D08F6
:1003E000C20702304202031CBF284808490403190F
:1003F000172A0130C8020030031CC903C90248088B
:100400004904031D092AA00100302E228312031380
:10041000152AC83048064904031D172AA601A60A52
:100420004C08ED2683120313CC01CF01CF0A013013
:10043000C6070318C70A0030C70707304702D13084
:1004400003194602031C282AC601C701CF01CF0A9F
:100450004F0803192C2A44276400B728831203137A
:10046000A5000130A1002508A20003300310A20C52
:10047000FF3E031D362A22080739013E412A031098
:10048000A10DFF3E031D3F2A2108A3002308A4005D
:1004900020080319552A2408A10025080739593EC8
:1004A000840021088313800408002409A100250882
:1004B0000739593E84002108831380050800F200A3
:1004C000F301721C672A7008F1007108F30703102A
:1004D000F00D0310F20C7208031D612A7308080066
:1004E000003400340034003400340034003400346C
:1004F0000734F534DA34033464008001840A0406D6
:100500000319003404067D2AFF3FFF3FFF3FFF3FF2
:1006000003308A000408840A82070034FF34FF3470
:10061000FF34FF34FF34FF34FF34FF34FF34FF3442
:10062000FF34FF34FF34FF349C34FF34FF34FF3495
:10063000FF34FF34FF3402340334FF34FF34FF341B
:100640000834093401340A340B34D634FF341834F6
:100650001034113412341B341334FF345C34073437
:100660002034193422341A342334633464341F346C
:10067000273426342134253424345434A034063429
:1006800017341E341D341C341434FF34FF349F34AB
:10069000163415340D3404340C34FF34C13497341B
:1006A000A0340E348D3405349E3483348B3493342B
:1006B0009C349B34E5348E34A334A6344B34FF345D
:1006C0000634DD34A434D134A73494348C348434E7
:1006D0009634C934D934E13444348834853403340D
:1006E0009A341B341C34A2349834C0340434973404
:1006F0000B342334243414344334FF34FF3496341D
:1007000013349E34A7340C34FF34FF3416344F3482
:100710001E34503426345134253453342E34563458
:10072000363457343D345C343E345E3446345F34C2
:10073000453460344E346134553462345D3463344E
:100740004C3467345234683441346A3449346D343B
:100750004A346E340E344834543464345B34653473
:100760001134083414341334703417346C3418349E
:100770007D34193471341F34693420347A34273489
:10078000753428346B342F34723430347434373445
:100790004A3438345A343934F234FF34AA34F43415
:1007A000E834F3343C340034AA341F3454345B341A
:1007B00063346434653448345D34093403341234AA
:1007C000593414341334113408346B34743475349C
:1007D00072347334043483120313B500803035024D
:1007E000031808002D30AE002E08A0005730AF00CF
:1007F0002F08A100DA30B0003008A2000630B100A6
:100800003108A300A40135308E272D308312031345
:10081000AE002E08A0005830AF002F08A100E03035
:10082000B0003008A2000630B1003108A3004E0825
:10083000B2003208A40035308E27773083120313BC
:100840003506031D2F2C2D0803192F2C4E08031DD0
:100850002B2C01302C2C0030AE002E08CE00570877
:100860000C390319432C570830390319432C1F3016
:100870003506031D432C2D080319432CFD30AE0013
:100880002E08E105442CE11457080C390319542CA7
:100890007E303506031D542C2D080319542CFB30D3
:1008A000AE002E08E105552C6115B4013408803ADC
:1008B000573E03188D2C3408813E840000233506F2
:1008C000031D842C570803390319692C4D0803199B
:1008D0006D2C4D083506031D7F2C2D080319752C32
:1008E0003508AE002E08CD00762CCD013408013E2F
:1008F000813E84000023AE002E08B5008D2C4D08EB
:1009000003198D2CB5018D2C0230AE002E08B407D2
:100910003408803A573E031C5B2CB3013308803AFD
:10092000783E0318B92C3308D03E840000233506E6
:10093000031DB02C2D080319B02C48084904031DD1
:10094000AE2C3508AE002E08CC009030C800013027
:10095000C9006F30AE002E08B500B92CB501B92C16
:100960000130AE002E08B3073308803A783E031CEE
:10097000932C2D08AE002E08A6003508ED260800A1
:100980008B1A0B1D5A2D02307D06031DF22C0830E8
:100990007B020318DC2C7C1CD12C831203138515DD
:1009A000D42C8312031385117C080139F4007408D8
:1009B000D6060310FC0C052D08307B06031DEC2C1D
:1009C00083120313561CE82C831203138515052D7F
:1009D000831203138511052DF93083160313850047
:1009E000FD01052D7D03031D382D08307B02031802
:1009F000012D0310FC0C83120313851D052DFC171C
:100A0000052D08307B06031D0A2D0130F400740803
:100A1000FB07552D09307B06031D552D0D30F400C5
:100A20007408F0007A085F22A03EF5007508F9000E
:100A30007C08F4007908033E840083130008053E17
:100A40007907F50075088400740880007908033E72
:100A500084000008013E0739F4007908033E840051
:100A600074088000FD01F930831603138500552DAD
:100A70007D08031D552D83120313051E8519552D61
:100A8000FB01FC01FD01FD0A003005180130FA00F0
:100A9000F8308316031385007A1C522D831203133A
:100AA0000514552D8312031305100B11FF3083120B
:100AB0000313810078088A0077088400760E83008B
:100AC000FE0E7E0E090083120313A4002408033EC9
:100AD0008400831300085106031D752D0130C407DF
:100AE0000318C50A0030C50708002408033E840027
:100AF0000008A0002008D100003045020B30031987
:100B00004402031C902D2408033E84000008FF3E8D
:100B10000739A0002408043E840020088000D0018A
:100B2000C401C5010130A0002008D00703305002E5
:100B3000031C08002408043E84000008053E240726
:100B4000A000200884000008A1002108A2002408B9
:100B5000043E84000008013E0739A0002408043E3A
:100B6000840020088000221CBA2DFE30A00020083E
:100B7000E105BB2D61142408043E84000008053EF5
:100B80002407A000200884000008A1002108E20733
:100B90002408043E84000008013E0739A000240810
:100BA000043E8400200880002408043E84000008DD
:100BB000053E2407A000200884000008A1002108A9
:100BC000E3072408043E84000008013E0739A00022
:100BD0002408043E8400200880000330D002A301D2
:100BE000083023020318002E2308593E8400800198
:100BF0000130A0002008A30708302302031CF42DB5
:100C0000CF01CF0A080083120313BC003C08033E47
:100C1000840083130008B6003C08043E84000008EA
:100C20003606031908003C08043E84000008053E0F
:100C30003C07B600360884000008B7003708BB0040
:100C40003C08043E84000008013E0739B6003C0819
:100C5000043E8400360880003C08023E8400000800
:100C600003194A2EBA013A08803A653E03185D2EF0
:100C70003A08AB3E840000233B06031D452E3A088C
:100C8000013EAB3E840000235A2E0230B6003608E7
:100C9000BA07332E83303B060319552E3B08B600A6
:100CA000B7013608B8003708582E3F30B80000307A
:100CB000B9003808B6003608BB00F0303B06031D0B
:100CC000662E3C0A8400831380010800E0303B0656
:100CD000031D712E3C08023E840083138001800AAC
:100CE00008003C0A840083130008B6003608AD00F3
:100CF0003B08EB2383120313CF01CF0A3C0A840085
:100D000083138001800A3C08023E840080010800B1
:100D100083120313A2008B122008A1002108FC00FB
:100D2000D601D60AFB010230A1002108FD0085157D
:100D3000E03083160313850083120313221CA42EB4
:100D4000831203130514A72E8312031305108515B0
:100D50000512423083120313A100A10BAD2E8312A2
:100D600003138511F030831603138500FF308312BF
:100D7000031381000B118B16A3010A302302031801
:100D8000E62EA4010A3024020318D92E063083125D
:100D90000313A100A10BCA2E7D080319D92E01301F
:100DA00083120313A1002108A4070A302402031CA4
:100DB000C62E7D080319E62E013083120313A1000D
:100DC0002108A3070A302302031CC12E0630831218
:100DD0000313A100A10BEA2E080083120313AB003A
:100DE000FF30A7002708AC00A901570803390319F1
:100DF000FE2E4D08031DFE2EA901A90A2908A700F1
:100E00002708A80057080C390319082F0130092FAB
:100E10000030A7002708AA0080302B020318172FE4
:100E20002B08013E84000023A7002708AC002C0AF1
:100E30000319322F2608A7002708A0002C082E220D
:100E4000831203132C1F262F0130272F0030A700F9
:100E50002708A804AC1F2E2F01302F2F0030A70029
:100E60002708AA042608031908002808A70027084D
:100E7000A00000302E22831203132A08A70027089F
:100E8000A0000F302E2208008312031305158510D1
:100E9000FE27831203138514FE2783120313851084
:100EA000FE2783120313A4012408803A753E031819
:100EB0008B2F05152408803A783E031C6A2F2408DE
:100EC000593E840083130008A000A1012008A2005D
:100ED0002108742F2408593E840083130008A000C1
:100EE000A1012009A2002109A30022088600FE27F3
:100EF000831203130511FE27831203130515FE2722
:100F0000013083120313A0002008A4072408803AAC
:100F1000753E031C592FFF3086000800831203130F
:100F2000A700A801230828020318080028082207A0
:100F300084000023A50027088400831300082506E9
:100F4000031DCE2F2008840000080319B72F01309D
:100F5000A500280AAD2F0310A50DFF3E031DAB2FE2
:100F60002508A6002108840026088004C72F013028
:100F7000A500280ABD2F0310A50DFF3E031DBB2FA2
:100F80002508FF3AA60021088400260880052408C9
:100F90000319080027088400800108000130A5001B
:100FA0002508A807922F83120313A000200A8400AB
:100FB00083138001800A2008023E840080012008FB
:100FC000043E840080012008033E84008001200844
:100FD00084008001080083120313A300A201231CD4
:100FE000F52F2008A1002108A2070310A00D03106F
:100FF000A30C2308031DEF2F220808000800FF3F61
:00000001FF
