:020000040000FA
:100000001028FF3FFF3FFF3FFE00030EF2000408F1
:10001000F3000A08F400831203137F08F500E02AB6
:1000200011287B24BE007C24BF007D24C0007E24D8
:10003000C1007F24C2008024C3008124C400822424
:10004000C5008324C6008424C7008524C800831308
:10005000323084003E308624793084007D3086241E
:10006000830132288B170B138B160B128B110B117C
:100070008B100B10831203138C130C138C120C12A5
:100080000C118C100C10831603138C130C138C1290
:100090000C120C118C100C10811301138116011617
:1000A0008115011181100110FF30831203138100AB
:1000B0008E018F0191019001950196019701073002
:1000C0009F00831603139F0183120313980180304E
:1000D0008316031398008312031398138501FF30CE
:1000E0008316031385000514851005118515051663
:1000F0008601831203138601BB01B901C901C90A34
:10010000F901FC01B401B501B601BD01B70102302E
:100110007C06031D5729831203133A08031D4E2939
:10012000CF30AD002D08A0000630AE002E08A10093
:10013000A2013D300C24D53083120313AD002D08ED
:10014000A0000630AE002E08A1003808AF002F082E
:10015000A2003C300C247730831203133B06031DAE
:10016000BD2849080319BD283808031DB9280130E6
:10017000BA280030AD002D08B8003D080C3903192D
:10018000D1283D0830390319D1281F303B06031D03
:10019000D12849080319D128FD30AD002D08C60526
:1001A000D228C6143D080C390319E2287E303B06DC
:1001B000031DE22849080319E228FB30AD002D0891
:1001C000C605E3284615B1013108803A573E0318A9
:1001D0001B293108813E840000223B06031D1229A1
:1001E0003D0803390319F72837080319FB28370896
:1001F0003B06031D0D294908031903293B08AD00DF
:100200002D08B7000429B7013108013E813E840062
:100210000022AD002D08BB001B29370803191B293C
:10022000BB011B290230AD002D08B1073108803A0F
:10023000573E031CE928B0013008803A783E031885
:1002400047293008C73E840000223B06031D3E2993
:10025000490803193E2934083504031D3C293B088D
:10026000AD002D08B6002830B4000A30B5006F305C
:10027000AD002D08BB004729BB0147290130AD0067
:100280002D08B0073008803A783E031C2129490820
:10029000AD002D08A6003B086C23C3238312031373
:1002A000BB01B901C901C90AF901FC01B1298312D5
:1002B00003133408350403197E290130B4020030D9
:1002C000031CB503B50234083504031D6C29A001D5
:1002D00000304A24C323B129143083120313340697
:1002E000053003193506031DB129A601A60A3608F3
:1002F0006C2383120313B601C323B1290130831287
:100300000313B2070318B30A0030B30707303302F0
:10031000D13003193202031CB12938080319AC2962
:100320003C1C94290230C702BC1C9A290230AD0043
:100330002D08C7073C1DA0290230AD002D08C807B5
:10034000BC1DA4290230C8023C1EAB29FE30AD0002
:100350002D08C605AC294614C32383120313B2012A
:10036000B30164008728FF3FFF3FFF3FFF3FFF3F90
:1004000002308A000408840A82070034FF34FF3473
:10041000FF34FF34FF34FF34FF34FF34FF34FF3444
:10042000FF34FF34FF34FF349C34FF34FF34FF3497
:10043000FF34FF34FF3402340334FF34FF34FF341D
:100440000834093401340A340B34D634FF341834F8
:100450001034113412341B341334FF345C34073439
:100460002034193422341A342334633464341F346E
:10047000273426342134253424345434A03406342B
:1004800017341E341D341C341434FF34FF349F34AD
:10049000163415340D3404340C34FF34C13497341D
:1004A000A0340E348D3405349E3483348B3493342D
:1004B0009C349B34E5348E34A334A6344B34FF345F
:1004C0000634DD34A434D134A73494348C348434E9
:1004D0009634C934D934E13444348834853403340F
:1004E0009A341B341C34A2349834C0340434973406
:1004F0000B342334243414344334FF34FF3496341F
:1005000013349E34A7340C34FF34FF3416344F3484
:100510001E34503426345134253453342E3456345A
:10052000363457343D345C343E345E3446345F34C4
:10053000453460344E346134553462345D34633450
:100540004C3467345234683441346A3449346D343D
:100550004A346E340E344834543464345B34653475
:100560001134083414341334703417346C341834A0
:100570007D34193471341F34693420347A3427348B
:10058000753428346B342F34723430347434373447
:100590004A3438345A3439341F3454345B34633475
:1005A0006434653448345D341234593414341334AB
:1005B000113408346B347434753472347334043445
:1005C0008B1A0B1D602B0B11FF3081007C08031D63
:1005D000F52A051E8519602BFA01FB01FC01FC0AB6
:1005E000003005180130BA00602B7C03031D5C2B22
:1005F0007A08803A783E03180D2B851D112B0130A7
:10060000F0007A0A052B0310F00DFF3E031D032BAB
:100610007008F1007108FB04112B08307A06031DE5
:10062000162B0130F0007008FA07602B09307A06AB
:10063000031D602B79080319352BF8017808803ADF
:10064000653E0318482B7808AB3E840000227B06E9
:10065000031D302B7808013EAB3E84000022452B61
:100660000230F0007008F8071E2B83307B06031958
:10067000402B7B08F000F1017008F6007108432B55
:100680003F30F6000030F7007608F0007008BB003D
:10069000F0307B06031D4F2BFC01C901602BE030BD
:1006A0007B06031D572BFC01F901F90A602B023070
:1006B000F0007008FC00602B04307C060319FC017C
:1006C0008B177508FF0074088A0073088400720E87
:1006D0008300FE0E7E0E090083120313AB00FF3071
:1006E000A7002708AC00A9013D08033903197D2B99
:1006F0003708031D7D2BA901A90A2908A70027088F
:10070000A8003D080C390319872B0130882B0030D5
:10071000A7002708AA0080302B020318962B2B086D
:10072000013E84000022A7002708AC002C0A031910
:10073000B12B2608A7002708A0002C084A24831202
:1007400003132C1FA52B0130A62B0030A700270870
:10075000A804AC1FAD2B0130AE2B0030A70027083A
:10076000AA042608031908002808A7002708A000E3
:1007700000304A24831203132A08A7002708A00088
:100780000F304A24080083120313851005158E24A8
:100790008312031385148E248312031385108E2471
:1007A00083120313A4012408803A753E0318092C10
:1007B0002408803A783E031CE82B24083E3E84003F
:1007C00083130008A000A1012008A2002108F22B39
:1007D00024083E3E840083130008A000A1012009E4
:1007E000A2002109A300220886008E24831203138D
:1007F00005118E248312031305158E2401308312F4
:100800000313A0002008A4072408803A753E031CA7
:10081000D82BFF308600080083120313A500A60121
:100820002108260203180800260820078400002259
:100830003B06031D452C490803192F2C0130A3004A
:10084000260A242C0310A30DFF3E031D222C23088F
:10085000A40025088400240883138004402C013060
:10086000A300260A352C0310A30DFF3E031D332CD5
:100870002308FF3AA4002508840024088313800578
:10088000220803190800BB0108000130A300230857
:10089000A607102C83120313A5000130A100250820
:1008A000A20003300310A20CFF3E031D522C2208AD
:1008B0000739013E5D2C0310A10DFF3E031D5B2C8B
:1008C0002108A3002308A40020080319712C240880
:1008D000A100250807393E3E8400210883138004C7
:1008E00008002409A100250807393E3E840021089C
:1008F00083138005080000340034003400340034D1
:100900000034003400340734F534DA3464008001F4
:10091000840A0406031900340406872C0800FF3FEC
:00000001FF
