:020000040000FA
:100000001028FF3FFF3FFF3FFE00030EF2000408F1
:10001000F3000A08F400831203137F08F500E02AB6
:1000200011287B24BF007C24C0007D24C1007E24D5
:10003000C2007F24C3008024C4008124C500822420
:10004000C6008324C7008424C8008524C900831304
:10005000333084003F308624793084007E3086241B
:100060008301322883120313B0013008803A783EAE
:100070000318482830083F3E840083138001013074
:10008000AD002D08B0073008803A783E031C3A28AE
:100090000730AD002D08C700F530AD002D08C800B1
:1000A000DA30AD002D08C900C2238B170B138B1655
:1000B0000B128B110B118B100B10831203138C136B
:1000C0000C138C120C120C118C100C1083160313D1
:1000D0008C130C138C120C120C118C100C1081133D
:1000E0000113811601168115011181100110FF30D5
:1000F0008312031381008E018F019101063090005D
:1001000095019601970107309F00831603139F0105
:10011000831203139801803083160313980083120F
:100120000313981385018316031305148510051115
:10013000851505168516051785178601FF3083126C
:1001400003138600BC01BB01BA01BA0AF901FD0123
:10015000B501B601B701BE01B80102307D06031D2D
:100160007A29CF3083120313AD002D08A00006308A
:10017000AE002E08A100A2013E300C24D53083121F
:100180000313AD002D08A0000630AE002E08A1001C
:100190003908AF002F08A2003D300C2477308312BD
:1001A00003133C06031DE0283A080319E028390828
:1001B000031DDC280130DD280030AD002D08B9001A
:1001C0003E080C390319F4283E0830390319F42885
:1001D0001F303C06031DF4283A080319F428FD30AB
:1001E000AD002D08C705F528C7143E080C390319C2
:1001F00005297E303C06031D05293A080319052907
:10020000FB30AD002D08C70506294715B20132089D
:10021000803A573E03183E293208813E840000226E
:100220003C06031D35293E08033903191A293808ED
:1002300003191E2938083C06031D30293A08031902
:1002400026293C08AD002D08B8002729B80132083E
:10025000013E813E84000022AD002D08BC003E29F5
:10026000380803193E29BC013E290230AD002D0893
:10027000B2073208803A573E031C0C29B1013108FD
:10028000803A783E03186A293108C73E840000226C
:100290003C06031D61293A08031961293508360413
:1002A000031D5F293C08AD002D08B7002830B500BC
:1002B0000A30B6006F30AD002D08BC006A29BC01C1
:1002C0006A290130AD002D08B1073108803A783E27
:1002D000031C44293A08AD002D08A6003C086B23F6
:1002E000C22383120313BC01BB01BA01BA0AF9018C
:1002F000FD01D42983120313350836040319A129FB
:100300000130B5020030031CB603B60235083604CE
:10031000031D8F29A00100304A24C223D4291430A0
:10032000831203133506053003193606031DD4293D
:10033000A601A60A37086B2383120313B701C22351
:10034000D429013083120313B3070318B40A003011
:10035000B40707303402D13003193302031CD42907
:1003600039080319CF293D1CB7290230C802BD1C2A
:10037000BD290230AD002D08C8073D1DC32902303C
:10038000AD002D08C907BD1DC7290230C9023D1E99
:10039000CE29FE30AD002D08C705CF294714C22352
:1003A00083120313B301B4016400AD28FF3FFF3F84
:1004000002308A000408840A82070034FF34FF3473
:10041000FF34FF34FF34FF34FF34FF34FF34FF3444
:10042000FF34FF34FF34FF349C34FF34FF34FF3497
:10043000FF34FF34FF3402340334FF34FF34FF341D
:100440000834093401340A340B34D634FF341834F8
:100450001034113412341B341334FF345C34073439
:100460002034193422341A342334633464341F346E
:10047000273426342134253424345434A03406342B
:1004800017341E341D341C341434FF34FF349F34AD
:10049000163415340D3404340C34FF34C13497341D
:1004A000A0340E348D3405349E3483348B3493342D
:1004B0009C349B34E5348E34A334A6344B34FF345F
:1004C0000634DD34A434D134A73494348C348434E9
:1004D0009634C934D934E13444348834853403340F
:1004E0009A341B341C34A2349834C0340434973406
:1004F0000B342334243414344334FF34FF3496341F
:1005000013349E34A7340C34FF34FF3416344F3484
:100510001E34503426345134253453342E3456345A
:10052000363457343D345C343E345E3446345F34C4
:10053000453460344E346134553462345D34633450
:100540004C3467345234683441346A3449346D343D
:100550004A346E340E344834543464345B34653475
:100560001134083414341334703417346C341834A0
:100570007D34193471341F34693420347A3427348B
:10058000753428346B342F34723430347434373447
:100590004A3438345A3439341F3454345B34633475
:1005A0006434653448345D341234593414341334AB
:1005B000113408346B347434753472347334043445
:1005C0008B1A0B1D602B0B11FF3081007D08031D62
:1005D000F52A051E8519602BFB01FC01FD01FD0AB2
:1005E000003005180130FA00602B7D03031D5C2BE1
:1005F0007B08803A783E03180D2B851D112B0130A6
:10060000F0007B0A052B0310F00DFF3E031D032BAA
:100610007008F1007108FC04112B08307B06031DE3
:10062000162B0130F0007008FB07602B09307B06A9
:10063000031D602B79080319352BF8017808803ADF
:10064000653E0318482B7808AB3E840000227C06E8
:10065000031D302B7808013EAB3E84000022452B61
:100660000230F0007008F8071E2B83307C06031957
:10067000402B7C08F000F1017008F6007108432B54
:100680003F30F6000030F7007608F0007008BC003C
:10069000F0307C06031D4F2BFD01BA01602BE030CA
:1006A0007C06031D572BFD01F901F90A602B02306E
:1006B000F0007008FD00602B04307D060319FD0179
:1006C0007508FF0074088A0073088400720E8300A6
:1006D000FE0E7E0E090083120313AB00FF30A7004D
:1006E0002708AC00A9013E08033903197C2B380800
:1006F000031D7C2BA901A90A2908A7002708A80027
:100700003E080C390319862B0130872B0030A700D7
:100710002708AA0080302B020318952B2B08013ED6
:1007200084000022A7002708AC002C0A0319B02B74
:100730002608A7002708A0002C084A2483120313C8
:100740002C1FA42B0130A52B0030A7002708A804DC
:10075000AC1FAC2B0130AD2B0030A7002708AA043A
:100760002608031908002808A7002708A000003061
:100770004A24831203132A08A7002708A0000F3079
:100780004A24080083120313051585108E24831252
:10079000031385148E248312031385108E24831271
:1007A0000313A4012408803A753E0318092C05158B
:1007B0002408803A783E031CE82B24083F3E84003E
:1007C00083130008A000A1012008A2002108F22B39
:1007D00024083F3E840083130008A000A1012009E3
:1007E000A2002109A300220886008E24831203138D
:1007F00005118E248312031305158E2401308312F4
:100800000313A0002008A4072408803A753E031CA7
:10081000D72BFF308600080083120313A500A60122
:100820002108260203180800260820078400002259
:100830003C06031D452C3A0803192F2C0130A30058
:10084000260A242C0310A30DFF3E031D222C23088F
:10085000A40025088400240883138004402C013060
:10086000A300260A352C0310A30DFF3E031D332CD5
:100870002308FF3AA4002508840024088313800578
:10088000220803190800BC0108000130A300230856
:10089000A607102C83120313A5000130A100250820
:1008A000A20003300310A20CFF3E031D522C2208AD
:1008B0000739013E5D2C0310A10DFF3E031D5B2C8B
:1008C0002108A3002308A40020080319712C240880
:1008D000A100250807393F3E8400210883138004C6
:1008E00008002409A100250807393F3E840021089B
:1008F00083138005080000340034003400340034D1
:100900000034003400340734F534DA3464008001F4
:10091000840A0406031900340406872C0800FF3FEC
:00000001FF
