:020000040000FA
:100000000C28FF3FFF3FFF3FFE00030EF6000408F1
:10001000F7000A08F800682D0D28F327D900F42707
:10002000DA00F527DB00F627DC00F727DD00F827EC
:10003000DE00F927DF00FA27E000FB27E100FC27BC
:10004000E200FD27E300FE27E4008313A0308400D4
:10005000BA30A322443084005930A3227A3084007D
:100060007E30A32283013428A030DB27AD30DB278C
:1000700083120313BF013F08803A783E03184E28CD
:100080003F08593E8400831380010130BD003D08C4
:10009000BF073F08803A783E031C4028FF30BD0070
:1000A0003D08E100F530BD003D08E200DA30BD005A
:1000B0003D08E3004C278B170B138B160B128B118B
:1000C0000B118B100B10831203138C130C138C1257
:1000D0000C120C118C100C10831603138C130C13C0
:1000E0008C120C120C118C100C108117011381163C
:1000F00001168115011181100110FF3083120313C5
:1001000081008E018F0191010630900095019601CA
:10011000970107309F00831603139F018312031377
:1001200098018030831603139800831203139813E9
:10013000F930831603138500831203138501831698
:1001400003138601FF30831203138600C801C9011F
:10015000CC01D701CD01CA01CB01D501D3010330B8
:10016000BD003D08D200C401C501D101D0014C271A
:1001700083120313CF01C201023042020318F62991
:100180000D30BD003D08A00042087F22A03E831232
:100190000313BE003E08C3004308033E84008313DC
:1001A0000008BD004308043E840000083D06031912
:1001B000EC284308043E84000008053E4307BD00C8
:1001C0003D088400AA300006031DEC280330BD0062
:1001D000430884003D088000430884000003031D99
:1001E000F42843080B26EC298312031343088400E8
:1001F000023083130006031D00294308C024EC29A4
:100200008312031343088400033083130006031D85
:10021000E129033052060319112952084206031D31
:10022000E1290130CA070318CB0A0030CB0701309F
:100230004B024E3003194A02031CF6294308033EC1
:1002400084000008BD004308043E840000083D0609
:10025000031944294308043E84000008053E43076F
:10026000BD003D0884000008BE003E08C1004308F0
:10027000043E84000008013E0739BD004308043EE7
:1002800084003D0880004829FF30BD003D08C100C2
:100290005308031D552903305206031DDE29420869
:1002A000BD003D08D200D501DC295303031DA5295B
:1002B0005508C73E84000023BD003D08D400AA3085
:1002C0005406031D9B29D83084000023FF3EBD0047
:1002D000FF3003180030BE0055083D063E04031DE4
:1002E0007C290230BD00430884003D088000FF30B7
:1002F000C4000030C50095294208BD003D08E40057
:10030000430884008001800AC001083040020318BD
:1003100095294008593E840080010130BD003D0808
:10032000C00708304002031C8929D3010330BD00F7
:100330003D08D200F6295408BD003D08A00052082F
:100340009026023083120313B22902305306031D94
:10035000B629FE3041060319DC29FC304106031999
:10036000DC290330BD003D08D300DE2903305306ED
:10037000031DDE29F2305406031DD12983304106C6
:100380000319D82941080319C92903304106031D5F
:10039000D829D93084000023FF3EBD003D08D50098
:1003A000D829540A031DD829AA304106031DF6296D
:1003B0000130BD003D08D507D301D30ACA01CB01E6
:1003C000F6294308033E840083130008BD00430858
:1003D000043E84003D088000013083120313BD00F9
:1003E0003D08C20702304202031CC02848084904E5
:1003F0000319182A0130C8020030031CC903C902BE
:1004000048084904031D0A2AA00100304E22831225
:100410000313162AC83048064904031D182AA601EA
:10042000A60A4C08F52683120313CC01CF01CF0A8C
:100430000130C6070318C70A0030C707013047025A
:100440004E3003194602031C482A4E080319482A55
:10045000581C2C2A0130E202D81C322A0130BD007F
:100460003D08E207581D382A0130BD003D08E3076A
:10047000D81D3C2A0130E302581E432AFE30BD003D
:100480003D08E105442A6114C601C701CF01CF0A26
:100490004F0803194C2A4C276400B8288312031311
:1004A000A5000130A1002508A20003300310A20C12
:1004B000FF3E031D562A22080739013E612A031018
:1004C000A10DFF3E031D5F2A2108A3002308A400FD
:1004D00020080319752A2408A10025080739593E68
:1004E000840021088313800408002409A100250842
:1004F0000739593E840021088313800508008312C0
:100500000313A300A201231C892A2008A1002108AB
:10051000A2070310A00D0310A30C2308031D832AB8
:1005200022080800F200F301721C9A2A7008F100F8
:100530007108F3070310F00D0310F20C7208031D8D
:10054000942A7308080064008001840A04060319D1
:1005500000340406A42AFF3FFF3FFF3FFF3FFF3F59
:1006000003308A000408840A82070034FF34FF3470
:10061000FF34FF34FF34FF34FF34FF34FF34FF3442
:10062000FF34FF34FF34FF349C34FF34FF34FF3495
:10063000FF34FF34FF3402340334FF34FF34FF341B
:100640000834093401340A340B34D634FF341834F6
:100650001034113412341B341334FF345C34073437
:100660002034193422341A342334633464341F346C
:10067000273426342134253424345434A034063429
:1006800017341E341D341C341434FF34FF349F34AB
:10069000163415340D3404340C34FF34C13497341B
:1006A000A0340E348D3405349E3483348B3493342B
:1006B0009C349B34E5348E34A334A6344B34FF345D
:1006C0000634DD34A434D134A73494348C348434E7
:1006D0009634C934D934E13444348834853403340D
:1006E0009A341B341C34A2349834C0340434973404
:1006F0000B342334243414344334FF34FF3496341D
:1007000013349E34A7340C34FF34FF3416344F3482
:100710001E34503426345134253453342E34563458
:10072000363457343D345C343E345E3446345F34C2
:10073000453460344E346134553462345D3463344E
:100740004C3467345234683441346A3449346D343B
:100750004A346E340E344834543464345B34653473
:100760001134083414341334703417346C3418349E
:100770007D34193471341F34693420347A34273489
:10078000753428346B342F34723430347434373445
:100790004A3438345A343934F234FF34AA34F43415
:1007A000E834F3343C340034AA341F3454345B341A
:1007B00063346434653448345D34093403341234AA
:1007C000593414341334113408346B34743475349C
:1007D00072347334043483120313B500803035024D
:1007E000031808002D30AE002E08A0005730AF00CF
:1007F0002F08A100DA30B0003008A2000630B100A6
:100800003108A300A401353096272D30831203133D
:10081000AE002E08A0005830AF002F08A100E03035
:10082000B0003008A2000630B1003108A3004E0825
:10083000B2003208A40035309627773083120313B4
:100840003506031D2F2C2D0803192F2C4E08031DD0
:100850002B2C01302C2C0030AE002E08CE00570877
:100860000C390319432C570830390319432C1F3016
:100870003506031D432C2D080319432CFB30AE0015
:100880002E08E105442C611557080C390319542C26
:100890007E303506031D542C2D080319542CF730D7
:1008A000AE002E08E105552CE115B4013408803A5C
:1008B000573E03188D2C3408813E840000233506F2
:1008C000031D842C570803390319692C4D0803199B
:1008D0006D2C4D083506031D7F2C2D080319752C32
:1008E0003508AE002E08CD00762CCD013408013E2F
:1008F000813E84000023AE002E08B5008D2C4D08EB
:1009000003198D2CB5018D2C0230AE002E08B407D2
:100910003408803A573E031C5B2CB3013308803AFD
:10092000783E0318B92C3308D03E840000233506E6
:10093000031DB02C2D080319B02C48084904031DD1
:10094000AE2C3508AE002E08CC009030C800013027
:10095000C9006F30AE002E08B500B92CB501B92C16
:100960000130AE002E08B3073308803A783E031CEE
:10097000932C2D08AE002E08A6003508F526080099
:1009800083120313A4002408033E84008313000889
:100990005106031DD22C0130C4070318C50A0030CC
:1009A000C50708002408033E84000008A0002008B2
:1009B000D100003045020B3003194402031CED2C1A
:1009C0002408033E84000008FF3E0739A0002408E5
:1009D000043E840020088000D001C401C50101301C
:1009E000A0002008D00703305002031C0800240890
:1009F000043E84000008053E2407A000200884006F
:100A00000008A1002108A2002408043E8400000878
:100A1000013E0739A0002408043E8400200880001D
:100A2000221C172DFE30A0002008E105182D6114AE
:100A3000A21C1F2DFD30A0002008E105202DE1148F
:100A40002408043E84000008053E2407A000200876
:100A500084000008A1002108E2072408043E840065
:100A60000008013E0739A0002408043E8400200845
:100A700080002408043E84000008053E2407A000EE
:100A8000200884000008A1002108E3072408043E90
:100A900084000008013E0739A0002408043E8400B9
:100AA000200880000330D002A3010830230203187D
:100AB000652D2308593E840080010130A0002008E4
:100AC000A30708302302031C592DCF01CF0A0800C9
:100AD0008B1A0B1D022E02307D06031D9A2D083045
:100AE0007B020318842D7C1C792D8312031385153A
:100AF0007C2D8312031385117C080139F4007408DE
:100B0000D6060310FC0CAD2D08307B06031D942D7A
:100B100083120313561C902D831203138515AD2DDC
:100B2000831203138511AD2DF9308316031385004D
:100B3000FD01AD2D7D03031DE02D08307B02031860
:100B4000A92D0310FC0C83120313851DAD2DFC177A
:100B5000AD2D08307B06031DB22D0130F400740862
:100B6000FB07FD2D09307B06031DFD2D0D30F40024
:100B70007408F0007A089222A03EF5007508F9008A
:100B80007C08F4007908033E840083130008053EC6
:100B90007907F50075088400740880007908033E21
:100BA00084000008013E0739F4007908033E840000
:100BB00074088000FD01F930831603138500FD2DB4
:100BC0007D08031DFD2D83120313051E8519FD2DC0
:100BD000FB01FC01FD01FD0A003005180130FA009F
:100BE000F8308316031385007A1CFA2D8312031341
:100BF0000514FD2D8312031305100B11FF30831212
:100C00000313810078088A0077088400760E830039
:100C1000FE0E7E0E090083120313BC003C08033E47
:100C2000840083130008B6003C08043E84000008DA
:100C30003606031908003C08043E84000008053EFF
:100C40003C07B600360884000008B7003708BB0030
:100C50003C08043E84000008013E0739B6003C0809
:100C6000043E8400360880003C08023E84000008F0
:100C70000319522EBA013A08803A653E0318652ED0
:100C80003A08AB3E840000233B06031D4D2E3A0874
:100C9000013EAB3E84000023622E0230B6003608CF
:100CA000BA073B2E83303B0603195D2E3B08B60086
:100CB000B7013608B8003708602E3F30B800003062
:100CC000B9003808B6003608BB00F0303B06031DFB
:100CD0006E2E3C0A8400831380010800E0303B063E
:100CE000031D792E3C08023E840083138001800A94
:100CF00008003C0A840083130008B6003608AD00E3
:100D00003B08EB2383120313CF01CF0A3C0A840074
:100D100083138001800A3C08023E840080010800A1
:100D200083120313A2008B122008A1002108FC00EB
:100D3000D601D60AFB010230A1002108FD0085156D
:100D4000E03083160313850083120313221CAC2E9C
:100D5000831203130514AF2E831203130510851598
:100D60000512423083120313A100A10BB52E83128A
:100D700003138511F030831603138500FF308312AF
:100D8000031381000B118B16A3010A3023020318F1
:100D9000EE2EA4010A3024020318E12E063083123D
:100DA0000313A100A10BD22E7D080319E12E0130FF
:100DB00083120313A1002108A4070A302402031C94
:100DC000CE2E7D080319EE2E013083120313A100ED
:100DD0002108A3070A302302031CC92E0630831200
:100DE0000313A100A10BF22E080083120313AB0022
:100DF000FF30A7002708AC00A901570803390319E1
:100E0000062F4D08031D062FA901A90A2908A700CE
:100E10002708A80057080C390319102F0130112F8B
:100E20000030A7002708AA0080302B0203181F2FCC
:100E30002B08013E84000023A7002708AC002C0AE1
:100E400003193A2F2608A7002708A0002C084E22D5
:100E5000831203132C1F2E2F01302F2F0030A700D9
:100E60002708A804AC1F362F0130372F0030A70009
:100E70002708AA042608031908002808A70027083D
:100E8000A00000304E22831203132A08A70027086F
:100E9000A0000F304E2208008312031305158510A1
:100EA000FF27831203138514FF2783120313851072
:100EB000FF2783120313A4012408803A753E031808
:100EC000932F05152408803A783E031C722F2408BE
:100ED000593E840083130008A000A1012008A2004D
:100EE00021087C2F2408593E840083130008A000A9
:100EF000A1012009A2002109A30022088600FF27E2
:100F0000831203130511FF27831203130515FF270F
:100F1000013083120313A0002008A4072408803A9C
:100F2000753E031C612FFF308600080083120313F7
:100F3000A700A80123082802031808002808220790
:100F400084000023A50027088400831300082506D9
:100F5000031DD62F2008840000080319BF2F01307D
:100F6000A500280AB52F0310A50DFF3E031DB32FC2
:100F70002508A6002108840026088004CF2F013010
:100F8000A500280AC52F0310A50DFF3E031DC32F82
:100F90002508FF3AA60021088400260880052408B9
:100FA0000319080027088400800108000130A5000B
:100FB0002508A8079A2F83120313A000200A840093
:100FC00083138001800A2008023E840080012008EB
:100FD000043E840080012008033E84008001200834
:100FE00084008001080000340034003400340034F0
:100FF0000034003400340734F534DA3403340800A4
:00000001FF
