:020000040000FA
:100000001028FF3FFF3FFF3FFE00030EF2000408F1
:10001000F3000A08F400831203137F08F500E02AB6
:1000200011289524CF009624D0009724D10098243D
:10003000D2009924D3009A24D4009B24D5009C2478
:10004000D6009D24D7009E24D8009F24D900831376
:10005000383084004F30A024793084007E30A024D2
:1000600083013228F90183120313C801C601C501B7
:10007000C401FD01B3013308803A783E03184E28CD
:1000800033084F3E8400831380010130AD002D08FA
:10009000B3073308803A783E031C40280730AD0090
:1000A0002D08D700F530AD002D08D800DA30AD00AE
:1000B0002D08D900D5238B170B138B160B128B1120
:1000C0000B118B100B10831203138C130C138C1257
:1000D0000C120C118C100C10831603138C130C13C0
:1000E0008C120C120C118C100C1081130113811640
:1000F00001168115011181100110FF3083120313C5
:1001000081008E018F0191010630900095019601CA
:10011000970107309F00831603139F018312031377
:1001200098018030831603139800831203139813E9
:100130008501831603130514851005118515051611
:100140008516051785178601FF3083120313860075
:10015000C201C301CA01CE01CB0183120313B20154
:1001600049087A0603199C294908383E84008313FC
:1001700000087F39AD002D08B7004908383E8400DB
:10018000801BC4280130C5280030AD002D08B60002
:100190004908013E0739AD002D08C9003630AD00D1
:1001A0002D08A0004E30AE002E08A100CF30AF00C9
:1001B0002F08A2000630B0003008A300A401373099
:1001C0001F24363083120313AD002D08A0004D30DC
:1001D000AE002E08A100D530AF002F08A2000630D7
:1001E000B0003008A3004C08B1003108A40037303B
:1001F0001F247730831203133706031D0B2936089B
:1002000003190B294C08031D072901300829003068
:10021000AD002D08CC004E080C3903191F294E08DB
:10022000303903191F291F303706031D1F293608CF
:1002300003191F29FD30AD002D08D7052029D7143B
:100240004E080C39031930297E303706031D30293A
:10025000360803193029FB30AD002D08D7053129A8
:100260005715B5013508803A573E031869293508F6
:10027000813E840000223706031D60294E080339A1
:10028000031945294B08031949294B083706031D53
:100290005B293608031951293708AD002D08CB001A
:1002A0005229CB013508013E813E84000022AD0079
:1002B0002D08B70069294B0803196929B701692975
:1002C0000230AD002D08B5073508803A573E031CB3
:1002D0003729B4013408803A783E03189529340848
:1002E000C73E840000223706031D8C2936080319F7
:1002F0008C2942084304031D8A293708AD002D08C4
:10030000CA002830C2000A30C3006F30AD002D088B
:10031000B7009529B70195290130AD002D08B40724
:100320003408803A783E031C6F293608AD002D084A
:10033000A60037088223AD29420843040319BF29C8
:100340000130C2020030031CC303C302420843044D
:10035000031DB029A0010030642483120313ED298A
:1003600014304206053003194306031DEF29A60188
:10037000A60A4A08822383120313CA01ED29013019
:10038000C0070318C10A0030C10707304102D1304D
:1003900003194002031CEF294C080319EB294D1CDB
:1003A000D3290230D802CD1CD9290230AD002D0846
:1003B000D8074D1DDF290230AD002D08D907CD1D0E
:1003C000E3290230D9024D1EEA29FE30AD002D0886
:1003D000D705EB295714C001C101B201B20A320896
:1003E0000319F329D5236400AD28FF3FFF3FFF3FEA
:1004000002308A000408840A82070034FF34FF3473
:10041000FF34FF34FF34FF34FF34FF34FF34FF3444
:10042000FF34FF34FF34FF349C34FF34FF34FF3497
:10043000FF34FF34FF3402340334FF34FF34FF341D
:100440000834093401340A340B34D634FF341834F8
:100450001034113412341B341334FF345C34073439
:100460002034193422341A342334633464341F346E
:10047000273426342134253424345434A03406342B
:1004800017341E341D341C341434FF34FF349F34AD
:10049000163415340D3404340C34FF34C13497341D
:1004A000A0340E348D3405349E3483348B3493342D
:1004B0009C349B34E5348E34A334A6344B34FF345F
:1004C0000634DD34A434D134A73494348C348434E9
:1004D0009634C934D934E13444348834853403340F
:1004E0009A341B341C34A2349834C0340434973406
:1004F0000B342334243414344334FF34FF3496341F
:1005000013349E34A7340C34FF34FF3416344F3484
:100510001E34503426345134253453342E3456345A
:10052000363457343D345C343E345E3446345F34C4
:10053000453460344E346134553462345D34633450
:100540004C3467345234683441346A3449346D343D
:100550004A346E340E344834543464345B34653475
:100560001134083414341334703417346C341834A0
:100570007D34193471341F34693420347A3427348B
:10058000753428346B342F34723430347434373447
:100590004A3438345A3439341F3454345B34633475
:1005A0006434653448345D341234593414341334AB
:1005B000113408346B347434753472347334043445
:1005C0008B1A0B1D772B0B11FF3081007D08031D4B
:1005D000F52A051E8519772BFB01FC01FD01FD0A9B
:1005E000003005180130C700772B7D03031D732BE6
:1005F0007B08803A783E03180D2B851D112B0130A6
:10060000F0007B0A052B0310F00DFF3E031D032BAA
:100610007008F1007108FC04112B08307B06031DE3
:10062000162B0130F0007008FB07772B09307B0692
:10063000031D772B0130F0007008C8074408031928
:10064000392BF8017808803A653E03184C2B78085E
:10065000AB3E840000227C06031D342B7808013E4B
:10066000AB3E84000022492B0230F0007008F807EE
:10067000222B83307C060319442B7C08F000F10107
:100680007008F6007108472B3F30F6000030F70085
:100690007608F0007008F900F0307C06031D562B38
:1006A000FD018030F0007008C500772BE0307C063B
:1006B000031D5E2BFD01C401C40A772B7908450494
:1006C000F0007A08383E84007008831380007A08AE
:1006D000013E0739F0007008FA00F901C801C601AF
:1006E000C501C401762B04307D060319FD01750890
:1006F000FF0074088A0073088400720E8300FE0EE7
:100700007E0E090083120313A800FF30A7002708FC
:10071000AC00AA014E0803390319932B4B08031DA3
:10072000932BAA01AA0A2A08A7002708A9004E08A5
:100730000C3903199D2B01309E2B0030A700270890
:10074000AB002808013E84000022A7002708AC0067
:100750002C0A0319C32B2608A7002708A0002C0881
:100760006424831203132C1FB72B0130B82B0030E5
:10077000A7002708A904AC1FBF2B0130C02B0030F5
:10078000A7002708AB042608031908002908A700BA
:100790002708A00000306424831203132B08A7004D
:1007A0002708A0000F3064240800831203130515E6
:1007B0008510A824831203138514A824831203131D
:1007C0008510A82483120313A4012408803A753EDF
:1007D00003181C2C05152408803A783E031CFB2BBB
:1007E00024084F3E840083130008A000A1012008C4
:1007F000A2002108052C24084F3E84008313000822
:10080000A000A1012009A2002109A300220886005E
:10081000A824831203130511A824831203130515BA
:10082000A824013083120313A0002008A407240881
:10083000803A753E031CEA2BFF30860008008312C5
:100840000313A700A801230828020318080028089A
:10085000220784000022A5002708840083130008D3
:100860002506031D5F2C2008840000080319482C6E
:100870000130A500280A3E2C0310A50DFF3E031DE4
:100880003C2C2508A6002108840026088004582C4A
:100890000130A500280A4E2C0310A50DFF3E031DB4
:1008A0004C2C2508FF3AA600210884002608800564
:1008B000240803190800270884008001080001307B
:1008C000A5002508A807232C83120313A5000130D7
:1008D000A1002508A20003300310A20CFF3E031D57
:1008E0006C2C22080739013E772C0310A10DFF3E26
:1008F000031D752C2108A3002308A4002008031958
:100900008B2C2408A100250807394F3E84002108BC
:100910008313800408002409A100250807394F3EED
:10092000840021088313800508000034003400345B
:10093000003400340034003400340734F534DA3441
:1009400064008001840A0406031900340406A12C03
:100950000800FF3FFF3FFF3FFF3FFF3FFF3FFF3FDD
:00000001FF
