:020000040000FA
:100000000428FF3FFF3FFF3F0528B722AF00B8227B
:10001000B000B922B100BA22B200BB22B300BC22A8
:10002000B400BD22B500BE22B600BF22B700C02278
:10003000B800C122B900C222BA0083132030840064
:100040002F30CD2283012428831685100511051435
:100050000516851583128501831686018312860194
:10006000AB01A901BE01BE0AA801AE01A201A30114
:10007000A401A701A601A501023083122E06031DCB
:10008000F2282A08031DEB2805302B06031D6928DA
:10009000BD013D08803A783E031869283D082F3E8F
:1000A00084008313000803195C283D08CD3E8400BA
:1000B0001121FD007D08AB003D082F3E840080012A
:1000C0000130FD007D08BD073D08803A783E031CE5
:1000D0004E28BC013C08803A573E0318A0283C0833
:1000E000813E840011212B06031D97282708031940
:1000F0007C2825080319802825082B06031D922833
:100100003E08031988282B08FD007D08A5008928D2
:10011000A5013C08013E813E84001121FD007D08BF
:10012000AB00A02825080319A028AB01A0280230A5
:10013000FD007D08BC073C08803A573E031C6F2831
:10014000BB013B08803A783E0318CC283B08C53EEB
:10015000840011212B06031DC3283E080319C32860
:1001600022082304031DC1282B08FD007D08A400DC
:10017000B830A2000B30A3006F30FD007D08AB004B
:10018000CC28AB01CC280130FD007D08BB073B0823
:10019000803A783E031CA62812302B060319D42877
:1001A00059302B06031DD8283E08FD007D08A70006
:1001B00014302B060319E02813302B06031DE42806
:1001C0003E08FD007D08A6003E08FD007D08F60003
:1001D0002B08EB2165228312AB01A901BE01BE0AE7
:1001E000A801AE010130A0070318A10A0030A10741
:1001F0004E302102213003192002031C0729FC3054
:10020000FD007D08AB0090228312A001A101963071
:1002100020062104031D0F2985158316851564000A
:100220003C2801308A000408840A82070034FF3425
:10023000FF34FF34FF34FF34FF34FF34FF34FF3426
:10024000FF34FF34FF34FF34FF349C34FF34FF3479
:10025000FF34FF34FF34FF3402340334FF34FF34FF
:10026000FF340834093401340A340B34D634FF34F3
:1002700018341034113412341B341334FF345C340A
:1002800007342034193422341A3423346334643468
:100290001F34273426342134253424345434A034F4
:1002A000063417341E341D341C341434FF34FF3428
:1002B0009F34163415340D3404340C34FF34C134F7
:1002C0009734A0340E348D3405349E3483348B340B
:1002D00093349C349B34E5348E34A334A6344B34AD
:1002E000FF340634DD34A434D134A73494348C3450
:1002F00084349634C934D934E13444348834853470
:1003000003349A341B341C34A2349834C03404347B
:1003100097340B342334243414344334FF34FF34FF
:10032000963413349E34A7340C34FF34FF3416341F
:100330004F341E34503426345134253453342E3443
:100340005634363457343D345C343E345E344634AF
:100350005F34453460344E346134553462345D3436
:1003600063344C3467345234683441346A34493429
:100370006D344A346E340E344834543464345B344F
:10038000653414341334703417346C3418347D34B9
:10039000193471341F34693420347A342734753475
:1003A00028346B342F3472343034743437344A3454
:1003B00038345A3439341F3454345B34633464343D
:1003C000653448345D34453416341E3426342534BF
:1003D0002E3436343D34FB00FF30F7007708FC0044
:1003E000F901831227080319FA292508031DFA29A0
:1003F000F901F90A7908F7007708F8002608F700EC
:100400007708FA0080307B0203180D2A7B08013E32
:1004100084001121F7007708FC007C0A0319262AC2
:100420007608F7007708F0007C0836227C1F1A2A2D
:1004300001301B2A0030F7007708F804FC1F222A3D
:100440000130232A0030F7007708FA0476080319F0
:1004500008007808F7007708F000003036227A08A4
:10046000F7007708F0000F3036220800F500013061
:10047000F1007508F20003300310F20CFF3E031D7B
:100480003C2A72080739013E472A0310F10DFF3E4E
:10049000031D452A7108F3007308F400700803195E
:1004A0005B2A7408F100750807392F3E8400710833
:1004B0008313800408007409F100750807392F3E82
:1004C00084007108831380050800831205158514C4
:1004D000C32283120511C322831205158510C3227E
:1004E0008312B701F3017308803A743E03188B2A14
:1004F0008312051573082F3E8400831300088600BD
:100500000511C3220130F2007208F3077308803A24
:10051000743E031C782A83120515FF3086000800FC
:1005200083128101831605108312051483160512A8
:10053000851183120512F101643071020318A82A93
:100540000130F0007008F10764307102031CA02A2A
:10055000831285110516831605160514FF308312C4
:100560008100AC010430F0007008AE0008000034D7
:1005700000340034003400340034003400340734D4
:10058000F534DA340034F101053071020318080043
:100590000130F0007008F107C42A64008001840A69
:1005A0000406031900340406CE2AFF3FFF3FFF3F35
:00000001FF
